:020000040800F2
:1000000058050020D13D000875020008770200085D
:100010007B0200087F020008830200080000000045
:10002000000000000000000000000000870200083F
:1000300089020008000000008B0200088D02000801
:10004000EB3D0008EB3D0008EB3D0008EB3D0008F0
:10005000EB3D0008EB3D0008EB3D0008EB3D0008E0
:10006000EB3D0008EB3D0008EB3D0008EB3D0008D0
:10007000EB3D0008EB3D0008EB3D0008EB3D0008C0
:10008000EB3D0008EB3D0008EB3D0008EB3D0008B0
:10009000EB3D0008EB3D0008EB3D0008EB3D0008A0
:1000A000EB3D0008EB3D0008EB3D0008EB3D000890
:1000B000EB3D0008EB3D0008EB3D0008EB3D000880
:1000C000EB3D0008EB3D0008EB3D0008EB3D000870
:1000D000EB3D0008453D0008C9390008EB3D00082C
:1000E000EB3D0008EB3D0008EB3D0008EB3D000850
:1000F000EB3D0008EB3D0008EB3D0008EB3D000840
:10010000EB3D0008EB3D0008EB3D0008EB3D00082F
:10011000EB3D0008EB3D0008EB3D0008EB3D00081F
:10012000EB3D0008EB3D0008EB3D0008EB3D00080F
:10013000DFF80CD005F08CF80048004745010008B6
:10014000580500200EB50024002500273FA103C953
:10015000CDE90001002603F031FD4FF4A06003F06B
:1001600049FE4FF4E13003F0A1FD00F081F900F009
:1001700061FE00F0A3F94FF4165003F03EFC43E09B
:10018000002000F0B5F902909DF80800012801D187
:1001900003F0DCFC02A9684603F0B6FC9DF80800F9
:1001A000B8B19DF808000C2801DD0B200290002456
:1001B00008E01DF8041027A005F06CF806B9012628
:1001C000601CC4B29DF808008442F2DB23A005F055
:1001D00061F8681CC5B20A2003F02DFD142D13D15F
:1001E0001F48006808B9012000E000201C49086091
:1001F0000025781CC7B23EB11A48006808B9012032
:1002000000E0002017490860BAE770B5164800887A
:1002100000F40040C0B114480088C0F30D0500246C
:100220000DE01248015D124804F014FE00BF4021A9
:100230000F4804F07DFE0128F9D1601C84B2AC4265
:10024000EFDB00200849088070BD000001030000BA
:100250000002C40B25303278200000002D00000081
:100260009481214294012342240000208A0000202E
:1002700000380140704700BFFEE700BFFEE700BF47
:10028000FEE700BFFEE77047704770477047000009
:100290000CB50020019000906C48006840F480305C
:1002A0006A49086000BF6948006800F400300090A7
:1002B0000198401C0190009818B90198B0F5A06F02
:1002C000F1D16248006800F4003010B101200090C4
:1002D00001E0002000900098012843D15C480068AC
:1002E00040F010005A4908600846006820F00300FA
:1002F00008600846006840F0020008605348406803
:10030000524948600846406848600846406840F4E2
:10031000806048600846406820F47C1048600846C9
:10032000406840F4E81048600846006840F080707B
:10033000086000BF4548006800F000700028F9D050
:100340004248406820F00300404948600846406841
:1003500040F00200486000BF3C48406800F00C00DC
:100360000828F9D10CBD10B5FFF792FF10BD10B5EC
:100370003648006840F0010034490860084640688B
:10038000344908403149486008460068324908400D
:100390002E4908600846006820F48020086008465E
:1003A000406820F4FE0048604FF41F008860FFF7AB
:1003B000DAFF4FF000602949086010BD10B5002138
:1003C00000200022214B5B6803F00C0121B10429BD
:1003D00006D0082928D107E0214B224C236027E0D2
:1003E0001F4B204C236023E0184B5B6803F4701014
:1003F000164B5B6803F48032022303EB904022B972
:10040000194B4343174C23600DE0104B5B6803F41A
:10041000003323B1144B4343124C236003E0104BD1
:100420004343104C236003E00D4B0E4C236000BF90
:1004300000BF064B5B68C3F303130C4CE15C094B34
:100440001B68CB40074C236010BD00000010024029
:10045000002002400000FFF8FFFFF6FE08ED00E07C
:1004600000127A000000002000093D000400002076
:1004700008B50121482004F04DFB2020ADF8000014
:1004800010208DF8030003208DF80200694609480A
:1004900004F084F82021074804F02DF92020ADF85D
:1004A00000006946044804F079F82021024804F06D
:1004B00022F908BD000C01400018014008B50121D7
:1004C000442004F027FB1820ADF8000048208DF8E8
:1004D000030069462C4804F061F80120ADF80000E3
:1004E00028208DF803006946284804F057F808BD15
:1004F00010B5044614B1012025490870244800783D
:1005000058B31021204804F0DCF850B108211E48EF
:1005100004F0D7F828B101211C4804F0D2F80128D2
:100520001BD10A2003F087FB002019490870102115
:10053000154804F0C6F808B9012010BD082112487A
:1005400004F0BFF808B90220F7E701210F4804F0D2
:10055000B8F8012815D10320EFE710210A4804F06C
:10056000B0F801280DD10821074804F0AAF80128A5
:1005700007D10121054804F0A4F810B9012004496D
:1005800008700020D9E70000001801400008014071
:1005900014000020FE4908807047FD49891C08802E
:1005A000704708B5FA48801C00880090BDF800002C
:1005B00008BDF74A1080921C1180704710B50446A0
:1005C0002046FFF7E7FF052003F011FBFFF7E9FFE7
:1005D00010BDF0480089EE4908807047EC49891C3D
:1005E0000880704730B5014601F01F04C1F3451380
:1005F000CA0AE50205EB43151544A8B230BD00BF99
:100600000100A0F10102D0B2FAD1704700B5024654
:100610000B46E048808841F66311884247D1DD48A7
:100620008079A8B9DB480088401E801A82B2D94977
:100630004889FFF7AFFF0020FFF7AFFF0020FFF76B
:10064000ACFF1012FFF7A9FFD0B2FFF7A6FF16E02C
:10065000D0494889FFF79EFF1012FFF79EFFD0B2E6
:10066000FFF79BFFCB490988491EC1F30F20FFF715
:1006700094FFC8490978491EC8B2FFF78EFFC549E3
:100680008889FFF787FF1812FFF787FFD8B2FFF7B7
:1006900084FFC0494988491EC1F30F20FFF77DFF41
:1006A000BC498978491EC8B2FFF777FF3AE0B948DC
:1006B000808845F21051884220D1B6494889FFF719
:1006C00069FF1012FFF769FFB2494989491C88B2D6
:1006D000FFF760FFD0B2FFF760FFAE498889FFF7F0
:1006E00059FF1812FFF759FFAA498989491C88B296
:1006F000FFF750FFD8B2FFF750FF13E0A549488934
:10070000FFF748FF1012FFF748FFD0B2FFF745FF91
:10071000A0498889FFF73EFF1812FFF73EFFD8B2C5
:10072000FFF73BFF00BD2DE9F04105460E46994815
:100730000088A84203DD97484088B04202DC0020D0
:10074000BDE8F08131462846FFF760FF9148808878
:1007500045F21051884204D14FF43850FFF71AFF88
:1007600002E02E20FFF716FFFFF71BFF0446894823
:10077000808841F66311884201D12046E0E7FFF707
:1007800010FF0446FFF70DFF8046E7B24FF6FF70FB
:1007900000EA0727E012C002B91240EA411040EA1D
:1007A000E820CDE700B57B48808845F210518842AB
:1007B00004D14FF42450FFF7EDFE02E02920FFF7AB
:1007C000E9FE00BD00B57348808845F210518842AB
:1007D00004D14FF42050FFF7DDFE02E02820FFF7A0
:1007E000D9FE00BD70B50446002300266948807913
:1007F000012805D16748808841F66311884208D1F5
:1008000064488079F0B96348808841F66311884272
:1008100018D1082C15D2DFE804F00406080A0C0EE3
:10082000101206240DE007240BE0042409E005243F
:1008300007E0012405E0002403E0032401E0022492
:1008400000BF00BF082C1CD2DFE804F00406090C2E
:100850000F12151800BF14E043F0800311E043F0BD
:1008600040030EE043F0C0030BE043F0200308E038
:1008700043F0600305E043F0A00302E043F0E0032F
:1008800000BF00BF4348808845F21051884202D122
:100890004FF4585600E036263E48808849F24131F0
:1008A000884205D03B48808847F28971884201D14F
:1008B00043F0080319463046FFF77BFE3548808831
:1008C00041F6631188421DD003F0200068B1314821
:1008D000008830494988884214DA2E4805884088C3
:1008E0002C490880084645800CE02A4800882949A0
:1008F0004988884206DD27480588408825490880C0
:10090000084645802348808845F21051884257D1D7
:1009100020494889FFF73EFE0020FFF73EFE1D49B3
:100920004989491C88B2FFF735FE0020FFF735FEE4
:1009300018494989891C88B2FFF72CFE1549098896
:10094000491EC1F30F20FFF728FE12494989C91C2F
:1009500088B2FFF71FFE0F490978491EC8B2FFF79A
:100960001CFE0C498889FFF715FE0020FFF715FED5
:1009700008498989491C88B2FFF70CFE0020FFF75F
:100980000CFE04498989891C88B2FFF703FE03E045
:10099000FE07006C3C000020FE494988491EC1F357
:1009A0000F20FFF7FAFDFB498989C91C88B2FFF7C0
:1009B000F1FDF8498978491EC8B2FFF7EEFD2DE038
:1009C000F4494889FFF7E6FD0020FFF7E6FD002027
:1009D000FFF7E3FDEF490988491EC1F30F20FFF738
:1009E000DCFDEC490978491EC8B2FFF7D6FDE9499C
:1009F0008889FFF7CFFD0020FFF7CFFD0020FFF72C
:100A0000CCFDE4494988491EC1F30F20FFF7C5FD1D
:100A1000E0498978491EC8B2FFF7BFFD70BD30B507
:100A200004460D4629462046FFF7F0FDFFF7D1FDAD
:100A3000D9480088D949088030BD10B503460C4616
:100A4000D448808845F21051884220D1D149488944
:100A5000FFF7A0FD1812FFF7A0FDCE494989491CF8
:100A600088B2FFF797FDD8B2FFF797FDC94988898B
:100A7000FFF790FD2012FFF790FDC6498989491CB8
:100A800088B2FFF787FDE0B2FFF787FD42E0C1487B
:100A9000808841F66311884228D1BE48807920B908
:100AA000BC480088401EC01A83B2BA494889FFF783
:100AB00071FD1812FFF771FDD8B2FFF76EFD181225
:100AC000FFF76BFDD8B2FFF768FDB2498889FFF7E1
:100AD00061FD2012FFF761FDE0B2FFF75EFD20121D
:100AE000FFF75BFDE0B2FFF758FD13E0A949488925
:100AF000FFF750FD1812FFF750FDD8B2FFF74DFD7C
:100B0000A4498889FFF746FD2012FFF746FDE0B2B1
:100B1000FFF743FD9F480089A049891E0880881C73
:100B2000028010BD2DE9F0470446BE20FFF732FDDC
:100B30000520FFF732FD204604F0C6FA07464FF0C5
:100B40006632974B04F04EFA054604F0CAFA1FFAD3
:100B500080F94846FFF721FD0120FFF71EFDFF2029
:100B6000FFF71BFD0020FFF718FD0020FFF715FD24
:100B7000BDE8F08710B5044686488471002C45D145
:100B8000F020844908804FF4A0704880084680888F
:100B900045F21051884210D14FF430507D49088100
:100BA0004FF4285048814FF42C5088814FF4F07056
:100BB00008804FF4487048801AE07648808841F6F3
:100BC000631188420DD12C20724908812B20488165
:100BD0002A2088814FF4F07008804FF448704880D4
:100BE00006E02C206B4908812A2048812B2088812F
:100BF0006848808845F2103188424CD14FF4A0708B
:100C0000644908804FF4F070488044E04FF4A070CD
:100C100060490880F02048800846808845F21051DD
:100C2000884210D14FF430505A4908814FF428506F
:100C300048814FF42C5088814FF4487008804FF45D
:100C4000F07048801AE05348808841F6631188426A
:100C50000DD12C204F4908812A2048812B208881E2
:100C60004FF4487008804FF4F070488006E02C2064
:100C7000484908812A2048812B208881454880885E
:100C800045F21031884206D14FF4F0704149088096
:100C90004FF4A07048800020FFF7A4FD10BDF0B510
:100CA00004460D46A018401E86B2E818401E87B2C2
:100CB0003848808841F66311884231D135488079BF
:100CC00001282DD033480088801A001B84B2E81810
:100CD000401E83B22F494889FFF75CFC2012FFF7C2
:100CE0005CFCE0B2FFF759FCA118491EC1F30F20CC
:100CF000FFF753FCA118491EC8B2FFF74EFC254967
:100D00008889FFF747FC2812FFF747FCE8B2FFF796
:100D100044FC1812FFF741FCD8B2FFF73EFC73E029
:100D20001C48808845F2105188424DD119494889A4
:100D3000FFF730FC2012FFF730FC16494989491CA7
:100D400088B2FFF727FCE0B2FFF727FC1149498979
:100D5000891C88B2FFF71EFC3012FFF71EFC0D49FC
:100D60004989C91C88B2FFF715FCF0B2FFF715FCE2
:100D700008498889FFF70EFC2812FFF70EFC054989
:100D80008989491C88B2FFF705FCE8B2FFF705FC2A
:100D9000004907E03C000020160000200008006C1D
:100DA000666604408989891C88B2FFF7F3FB381214
:100DB000FFF7F3FBFE498989C91C88B2FFF7EAFBFC
:100DC000F8B2FFF7EAFB1FE0F9494889FFF7E2FBB9
:100DD0002012FFF7E2FBE0B2FFF7DFFB3012FFF774
:100DE000DCFBF0B2FFF7D9FBF1498889FFF7D2FBB2
:100DF0002812FFF7D2FBE8B2FFF7CFFB3812FFF75C
:100E0000CCFBF8B2FFF7C9FBF0BD70B50446002675
:100E1000E74805884088454300210846FFF7F6FB70
:100E2000FFF7D7FB00BF02E0E2480480761CAE4229
:100E3000FAD370BD00B59FB00121080203F05DFE3A
:100E400001214FF4B47003F065FE0120ADF8780085
:100E500010208DF87B0003208DF87A001EA9D6485B
:100E600003F09CFB4CF23370ADF8780018208DF83D
:100E70007B0003208DF87A001EA9D04803F08EFB7A
:100E80004FF68070ADF8780018208DF87B000320B5
:100E90008DF87A001EA9CA4803F080FB41F20100D8
:100EA000ADF8780018208DF87B0003208DF87A00CB
:100EB0001EA9C44803F072FB01200890002009908D
:100EC0000F200A9000200B900C900D900E90019036
:100ED0000290032003900020049005900690079054
:100EE00006200F90002010901190102012900020EA
:100EF000139015901490169017904FF480501890FE
:100F0000002019904FF480401A9000201B9008A8F0
:100F10001C9001A81D900FA803F026F801210620BF
:100F200003F08AF9322002F086FED320FFF732FB6D
:100F3000FFF737FB9E498880FFF733FB9C49888089
:100F4000FFF72FFB9A498880084680884FF6FF718B
:100F500001EA002096498880FFF723FB944989889D
:100F60000843934988800846808849F24131884285
:100F70007ED00420FFF70EFBFFF713FB8C4988801F
:100F8000FFF70FFB8A498880FFF70BFB88498880B1
:100F9000084680884FF6FF7101EA00208449888066
:100FA000FFF7FFFA8249898808438149888008460B
:100FB000808848F25251884203D147F289707C49B7
:100FC00088807B48808847F2897188427AD0D42013
:100FD000FFF7E0FAFFF7E5FA75498880FFF7E1FAD5
:100FE00073498880FFF7DDFA714988800846808858
:100FF0004FF6FF7101EA00206D498880FFF7D1FAB2
:101000006B49898808436A4988800846808845F288
:101010001031884256D04FF45A40FFF7BBFAFFF721
:10102000C0FA634988804FF45B40FFF7B3FAFFF7DB
:10103000B8FA5F498880084680884FF6FF7101EA58
:1010400000205B4988804FF45C40FFF7A3FAFFF76C
:10105000A8FA5749898808435549888008468088F6
:10106000B0F5004F02D145F210508880504800E0A2
:1010700028E0808845F21051884223D0A120FFF754
:1010800089FAFFF78EFA4A498880FFF78AFA4849B9
:101090008880084680884FF6FF7101EA00204449A5
:1010A0008880FFF77EFA4249898808434049888052
:1010B0000846808845F26171884203D141F6631089
:1010C0003B4988803A4881883FA004F0E3F83848DB
:1010D000808849F2413188427ED1CF20FFF75AFA09
:1010E0000020FFF75AFAC120FFF757FA3020FFF728
:1010F00054FAED20FFF74EFA6420FFF74EFA032072
:10110000FFF74BFA1220FFF748FA8120FFF745FA64
:10111000E820FFF73FFA8520FFF73FFA1020FFF79E
:101120003CFA7A20FFF739FACB20FFF733FA39205F
:10113000FFF733FA2C20FFF730FA0020FFF72DFAE3
:101140003420FFF72AFA0220FFF727FAF720FFF7EB
:1011500021FA2020FFF721FAEA20FFF71BFA0020EE
:10116000FFF71BFA0020FFF718FAC020FFF712FA6A
:101170001B20FFF712FAC120FFF70CFA0120FFF73E
:101180000CFAC520FFF706FA3020FFF706FA3020E8
:10119000FFF703FAC720FFF7FDF9B720FFF7FDF9C6
:1011A0003620FFF7F7F94820FFF7F7F93A2014E067
:1011B0003C0000200008006C000C014000140140BD
:1011C0000018014000200140204C43442049443A8B
:1011D00025780D0A00000000ABE0FFF7DBF9552091
:1011E000FFF7DBF9B120FFF7D5F90020FFF7D5F9BC
:1011F0001A20FFF7D2F9B620FFF7CCF90A20FFF743
:10120000CCF9A220FFF7C9F9F220FFF7C3F90020BB
:10121000FFF7C3F92620FFF7BDF90120FFF7BDF95D
:10122000E020FFF7B7F90F20FFF7B7F92A20FFF703
:10123000B4F92820FFF7B1F90820FFF7AEF90E2026
:10124000FFF7ABF90820FFF7A8F95420FFF7A5F93D
:10125000A920FFF7A2F94320FFF79FF90A20FFF723
:101260009CF90F20FFF799F90020FFF796F900206D
:10127000FFF793F90020FFF790F90020FFF78DF9B1
:10128000E120FFF787F90020FFF787F91520FFF726
:1012900084F91720FFF781F90720FFF77EF9112065
:1012A000FFF77BF90620FFF778F92B20FFF775F998
:1012B0005620FFF772F93C20FFF76FF90520FFF782
:1012C0006CF91020FFF769F90F20FFF766F93F204E
:1012D000FFF763F93F20FFF760F90F20FFF75DF993
:1012E0002B20FFF757F90020FFF757F90020FFF7F1
:1012F00054F90120FFF751F93F20FFF74EF92A205A
:10130000FFF748F90020FFF748F90020FFF745F9FB
:101310000020FFF742F9EF20FFF73FF91120FFF718
:1013200039F9782002F087FC2920FFF733F902F021
:10133000A6B8FE48808847F2897188427ED1112084
:10134000FFF728F9782002F076FC3620FFF722F923
:101350000020FFF722F93A20FFF71CF90520FFF7DC
:101360001CF9B220FFF716F90C20FFF716F90C2034
:10137000FFF713F90020FFF710F93320FFF70DF9FD
:101380003320FFF70AF9B720FFF704F93520FFF7FC
:1013900004F9BB20FFF7FEF83220FFF7FEF8C0206B
:1013A000FFF7F8F80C20FFF7F8F8C220FFF7F2F883
:1013B0000120FFF7F2F8C320FFF7ECF81020FFF749
:1013C000ECF8C420FFF7E6F82020FFF7E6F8C62087
:1013D000FFF7E0F80F20FFF7E0F8D020FFF7DAF88A
:1013E000A420FFF7DAF8A120FFF7D7F8E020FFF7F5
:1013F000D1F8D020FFF7D1F80020FFF7CEF8022077
:10140000FFF7CBF80720FFF7C8F80A20FFF7C5F869
:101410002820FFF7C2F83220FFF7BFF84420FFF77B
:10142000BCF84220FFF7B9F80620FFF7B6F80E2007
:10143000FFF7B3F81220FFF7B0F800E054E01420F3
:10144000FFF7ABF81720FFF7A8F8E120FFF7A2F8A5
:10145000D020FFF7A2F80020FFF79FF80220FFF747
:101460009CF80720FFF799F80A20FFF796F8282044
:10147000FFF793F83120FFF790F85420FFF78DF82D
:101480004720FFF78AF80E20FFF787F81C20FFF7A8
:1014900084F81720FFF781F81B20FFF77EF81E2045
:1014A000FFF77BF82A20FFF775F80020FFF775F8A3
:1014B0000020FFF772F80020FFF76FF8EF20FFF72A
:1014C0006CF82B20FFF766F80020FFF766F8002085
:1014D000FFF763F80120FFF760F83F20FFF75DF8A2
:1014E0002920FFF757F822E79048808845F210310D
:1014F000884240F07C87ED20FFF74CF80120FFF791
:101500004CF8FE20FFF749F8EE20FFF743F8DE2005
:10151000FFF743F82120FFF740F8F120FFF73AF8F2
:101520000120FFF73AF8DF20FFF734F81020FFF72B
:1015300034F8C420FFF72EF88F20FFF72EF8C620CE
:10154000FFF728F80020FFF728F8E220FFF725F83A
:10155000E220FFF722F8E220FFF71FF8BF20FFF795
:1015600019F8AA20FFF719F8B020FFF713F80D209B
:10157000FFF713F80020FFF710F80D20FFF70DF824
:101580000020FFF70AF81120FFF707F80020FFF707
:1015900004F81920FFF701F80020FEF7FEFF2120D4
:1015A000FEF7FBFF0020FEF7F8FF2D20FEF7F5FF0A
:1015B0000020FEF7F2FF3D20FEF7EFFF0020FEF7D0
:1015C000ECFF5D20FEF7E9FF0020FEF7E6FF5D205F
:1015D000FEF7E3FF0020FEF7E0FFB120FEF7DAFFA1
:1015E0008020FEF7DAFF0020FEF7D7FF8B20FEF702
:1015F000D4FF0020FEF7D1FF9620FEF7CEFF00209B
:10160000FEF7CBFFB220FEF7C5FF0020FEF7C5FFB7
:101610000020FEF7C2FF0220FEF7BFFF0020FEF70A
:10162000BCFF0320FEF7B9FF0020FEF7B6FFB32092
:10163000FEF7B0FF0020FEF7B0FF0020FEF7ADFF81
:101640000020FEF7AAFF0020FEF7A7FF0020FEF70C
:10165000A4FF0020FEF7A1FF0020FEF79EFF002060
:10166000FEF79BFF0020FEF798FF0020FEF795FF96
:101670000020FEF792FF0020FEF78FFF0020FEF70C
:101680008CFF0020FEF789FF0020FEF786FF002078
:10169000FEF783FF0020FEF780FF0020FEF77DFFAE
:1016A0000020FEF77AFF0020FEF777FF0020FEF70C
:1016B00074FF0020FEF771FF0020FEF76EFF002090
:1016C000FEF76BFFB420FEF765FF8B20FEF765FF8A
:1016D0000020FEF762FF9620FEF75FFF0020FEF776
:1016E0005CFFA120FEF759FF0020FEF756FFB52052
:1016F000FEF750FF0220FEF750FF0020FEF74DFFDF
:101700000320FEF74AFF0020FEF747FF0420FEF704
:1017100044FF0020FEF741FFB620FEF73BFF00200C
:10172000FEF73BFF0020FEF738FF01E03C00002001
:10173000B720FEF72FFF0020FEF72FFF0020FEF757
:101740002CFF3F20FEF729FF0020FEF726FF5E203A
:10175000FEF723FF0020FEF720FF6420FEF71DFFA9
:101760000020FEF71AFF8C20FEF717FF0020FEF77F
:1017700014FFAC20FEF711FF0020FEF70EFFDC2067
:10178000FEF70BFF0020FEF708FF7020FEF705FFB5
:101790000020FEF702FF9020FEF7FFFE0020FEF77C
:1017A000FCFEEB20FEF7F9FE0020FEF7F6FEDC2043
:1017B000FEF7F3FE0020FEF7F0FEB820FEF7EAFE8B
:1017C0000020FEF7EAFE0020FEF7E7FE0020FEF70D
:1017D000E4FE0020FEF7E1FE0020FEF7DEFE002022
:1017E000FEF7DBFE0020FEF7D8FE0020FEF7D5FE58
:1017F000BA20FEF7CFFE2420FEF7CFFE0020FEF732
:10180000CCFE0020FEF7C9FE0020FEF7C6FEC12078
:10181000FEF7C0FE2020FEF7C0FE0020FEF7BDFE52
:101820005420FEF7BAFE0020FEF7B7FEFF20FEF7B9
:10183000B4FE0020FEF7B1FEC220FEF7ABFE0A2088
:10184000FEF7ABFE0020FEF7A8FE0420FEF7A5FE83
:101850000020FEF7A2FEC320FEF79CFE3C20FEF710
:101860009CFE0020FEF799FE3A20FEF796FE00202F
:10187000FEF793FE3920FEF790FE0020FEF78DFE66
:101880003720FEF78AFE0020FEF787FE3C20FEF799
:1018900084FE0020FEF781FE3620FEF77EFE00204B
:1018A000FEF77BFE3220FEF778FE0020FEF775FE85
:1018B0002F20FEF772FE0020FEF76FFE2C20FEF7B1
:1018C0006CFE0020FEF769FE2920FEF766FE002070
:1018D000FEF763FE2620FEF760FE0020FEF75DFEA9
:1018E0002420FEF75AFE0020FEF757FE2420FEF7C4
:1018F00054FE0020FEF751FE2320FEF74EFE00208E
:10190000FEF74BFE3C20FEF748FE0020FEF745FEAA
:101910003620FEF742FE0020FEF73FFE3220FEF7A3
:101920003CFE0020FEF739FE2F20FEF736FE002099
:10193000FEF733FE2C20FEF730FE0020FEF72DFED2
:101940002920FEF72AFE0020FEF727FE2620FEF7BC
:1019500024FE0020FEF721FE2420FEF71EFE0020BC
:10196000FEF71BFE2420FEF718FE0020FEF715FEF2
:101970002320FEF712FE0020FEF70FFEC420FEF724
:1019800009FE6220FEF709FE0020FEF706FE052094
:10199000FEF703FE0020FEF700FE8420FEF7FDFDAB
:1019A0000020FEF7FAFDF020FEF7F7FD0020FEF71D
:1019B000F4FD1820FEF7F1FD0020FEF7EEFDA42057
:1019C000FEF7EBFD0020FEF7E8FD1820FEF7E5FD31
:1019D0000020FEF7E2FD5020FEF7DFFD0020FEF7BD
:1019E000DCFD0C20FEF7D9FD0020FEF7D6FD172008
:1019F000FEF7D3FD0020FEF7D0FD9520FEF7CDFDCC
:101A00000020FEF7CAFDF320FEF7C7FD0020FEF719
:101A1000C4FDE620FEF7C1FD0020FEF7BEFDC52097
:101A2000FEF7B8FD3220FEF7B8FD0020FEF7B5FD49
:101A30004420FEF7B2FD0020FEF7AFFD6520FEF763
:101A4000ACFD0020FEF7A9FD7620FEF7A6FD0020E4
:101A5000FEF7A3FD8820FEF7A0FD0020FEF79DFD08
:101A6000C620FEF797FD2020FEF797FD0020FEF729
:101A700094FD1720FEF791FD0020FEF78EFD01205A
:101A8000FEF78BFD0020FEF788FDC720FEF782FDE4
:101A90000020FEF782FD0020FEF77FFD0020FEF70C
:101AA0007CFD0020FEF779FDC820FEF773FD0020C5
:101AB000FEF773FD0020FEF770FD0020FEF76DFDC0
:101AC0000020FEF76AFDC920FEF764FD0020FEF746
:101AD00064FD0020FEF761FD0020FEF75EFD0020A2
:101AE000FEF75BFD0020FEF758FD0020FEF755FDD8
:101AF0000020FEF752FD0020FEF74FFD0020FEF70C
:101B00004CFD0020FEF749FD0020FEF746FD0020B9
:101B1000FEF743FD0020FEF740FD0020FEF73DFDEF
:101B20000020FEF73AFD0020FEF737FDE020FEF72B
:101B300031FD1620FEF731FD0020FEF72EFD1C20A2
:101B4000FEF72BFD0020FEF728FD2120FEF725FDE6
:101B50000020FEF722FD3620FEF71FFD0020FEF7D5
:101B60001CFD4620FEF719FD0020FEF716FD522051
:101B7000FEF713FD0020FEF710FD6420FEF70DFDBB
:101B80000020FEF70AFD7A20FEF707FD0020FEF791
:101B900004FD8B20FEF701FD0020FEF7FEFC9920DE
:101BA000FEF7FBFC0020FEF7F8FCA820FEF7F5FC92
:101BB0000020FEF7F2FCB920FEF7EFFC0020FEF754
:101BC000ECFCC420FEF7E9FC0020FEF7E6FCCA208E
:101BD000FEF7E3FC0020FEF7E0FCD220FEF7DDFC80
:101BE0000020FEF7DAFCD920FEF7D7FC0020FEF734
:101BF000D4FCE020FEF7D1FC0020FEF7CEFCF32061
:101C0000FEF7CBFC0020FEF7C8FCE120FEF7C2FC8B
:101C10001620FEF7C2FC0020FEF7BFFC1C20FEF7DA
:101C2000BCFC0020FEF7B9FC2220FEF7B6FC002029
:101C3000FEF7B3FC3620FEF7B0FC0020FEF7ADFC4B
:101C40004520FEF7AAFC0020FEF7A7FC5220FEF775
:101C5000A4FC0020FEF7A1FC6420FEF79EFC0020FF
:101C6000FEF79BFC7A20FEF798FC0020FEF795FC1F
:101C70008B20FEF792FC0020FEF78FFC9920FEF7E8
:101C80008CFC0020FEF789FCA820FEF786FC0020D3
:101C9000FEF783FCB920FEF780FC0020FEF77DFCF8
:101CA000C420FEF77AFC0020FEF777FCCA20FEF77E
:101CB00074FC0020FEF771FCD220FEF76EFC0020C1
:101CC000FEF76BFCD820FEF768FC0020FEF765FCF1
:101CD000E020FEF762FC0020FEF75FFCF320FEF739
:101CE0005CFC0020FEF759FCE220FEF753FC0520C7
:101CF000FEF753FC0020FEF750FC0B20FEF74DFCD6
:101D00000020FEF74AFC1B20FEF747FC0020FEF7F0
:101D100044FC3420FEF741FC0020FEF73EFC44204A
:101D2000FEF73BFC0020FEF738FC4F20FEF735FCA9
:101D30000020FEF732FC6120FEF72FFC0020FEF7AA
:101D40002CFC7920FEF729FC0020FEF726FC8820D9
:101D5000FEF723FC0020FEF720FC9720FEF71DFC79
:101D60000020FEF71AFCA620FEF717FC0020FEF765
:101D700014FCB720FEF711FC0020FEF70EFCC22079
:101D8000FEF70BFC0020FEF708FCC720FEF705FC61
:101D90000020FEF702FCD120FEF7FFFB0020FEF73B
:101DA000FCFBD620FEF7F9FB0020FEF7F6FBDD205A
:101DB000FEF7F3FB0020FEF7F0FBF320FEF7EDFB50
:101DC0000020FEF7EAFBE320FEF7E4FB0520FEF728
:101DD000E4FB0020FEF7E1FB0A20FEF7DEFB00201B
:101DE000FEF7DBFB1C20FEF7D8FB0020FEF7D5FB3F
:101DF0003320FEF7D2FB0020FEF7CFFB4420FEF796
:101E0000CCFB0020FEF7C9FB5020FEF7C6FB0020EC
:101E1000FEF7C3FB6220FEF7C0FB0020FEF7BDFB10
:101E20007820FEF7BAFB0020FEF7B7FB8820FEF70C
:101E3000B4FB0020FEF7B1FB9720FEF7AEFB0020BD
:101E4000FEF7ABFBA620FEF7A8FB0020FEF7A5FBE4
:101E5000B720FEF7A2FB0020FEF79FFBC220FEF793
:101E60009CFB0020FEF799FBC720FEF796FB0020A5
:101E7000FEF793FBD120FEF790FB0020FEF78DFBD1
:101E8000D520FEF78AFB0020FEF787FBDD20FEF75A
:101E900084FB0020FEF781FBF320FEF77EFB002091
:101EA000FEF77BFBE420FEF775FB0120FEF775FBD8
:101EB0000020FEF772FB0120FEF76FFB0020FEF70B
:101EC0006CFB0220FEF769FB0020FEF766FB2A2070
:101ED000FEF763FB0020FEF760FB3C20FEF75DFB96
:101EE0000020FEF75AFB4B20FEF757FB0020FEF7C1
:101EF00054FB5D20FEF751FB0020FEF74EFB7420E3
:101F0000FEF74BFB0020FEF748FB8420FEF745FB65
:101F10000020FEF742FB9320FEF73FFB0020FEF778
:101F20003CFBA220FEF739FB0020FEF736FBB32076
:101F3000FEF733FB0020FEF730FBBE20FEF72DFB43
:101F40000020FEF72AFBC420FEF727FB0020FEF747
:101F500024FBCD20FEF721FB0020FEF71EFBD32043
:101F6000FEF71BFB0020FEF718FBDD20FEF715FB3C
:101F70000020FEF712FBF320FEF70FFB0020FEF718
:101F80000CFBE520FEF706FB0020FEF706FB002019
:101F9000FEF703FB0020FEF700FB0020FEF7FDFA32
:101FA0000220FEF7FAFA0020FEF7F7FA2920FEF7E2
:101FB000F4FA0020FEF7F1FA3C20FEF7EEFA0020DA
:101FC000FEF7EBFA4B20FEF7E8FA0020FEF7E5FA01
:101FD0005D20FEF7E2FA0020FEF7DFFA7420FEF73C
:101FE000DCFA0020FEF7D9FA8420FEF7D6FA0020AA
:101FF000FEF7D3FA9320FEF7D0FA0020FEF7CDFAD1
:10200000A220FEF7CAFA0020FEF7C7FAB320FEF7B7
:10201000C4FA0020FEF7C1FABE20FEF7BEFA002087
:10202000FEF7BBFAC420FEF7B8FA0020FEF7B5FAB7
:10203000CD20FEF7B2FA0020FEF7AFFAD320FEF76C
:10204000ACFA0020FEF7A9FADC20FEF7A6FA002081
:10205000FEF7A3FAF320FEF7A0FA0020FEF79DFAA0
:10206000E620FEF797FA1120FEF797FA0020FEF718
:1020700094FA3420FEF791FA0020FEF78EFA5620EB
:10208000FEF78BFA0020FEF788FA7620FEF785FA35
:102090000020FEF782FA7720FEF77FFA0020FEF795
:1020A0007CFA6620FEF779FA0020FEF776FA88209F
:1020B000FEF773FA0020FEF770FA9920FEF76DFA2A
:1020C0000020FEF76AFABB20FEF767FA0020FEF751
:1020D00064FA9920FEF761FA0020FEF75EFA6620A6
:1020E000FEF75BFA0020FEF758FA5520FEF755FA86
:1020F0000020FEF752FA5520FEF74FFA0020FEF7B7
:102100004CFA4520FEF749FA0020FEF746FA432034
:10211000FEF743FA0020FEF740FA4420FEF73DFAAE
:102120000020FEF73AFAE720FEF734FA3220FEF7F5
:1021300034FA0020FEF731FA5520FEF72EFA00207F
:10214000FEF72BFA7620FEF728FA0020FEF725FA94
:102150006620FEF722FA0020FEF71FFA6720FEF73E
:102160001CFA0020FEF719FA6720FEF716FA002085
:10217000FEF713FA8720FEF710FA0020FEF70DFA9B
:102180009920FEF70AFA0020FEF707FABB20FEF7B7
:1021900004FA0020FEF701FA9920FEF7FEF900206C
:1021A000FEF7FBF97720FEF7F8F90020FEF7F5F9C6
:1021B0004420FEF7F2F90020FEF7EFF95620FEF773
:1021C000ECF90020FEF7E9F92320FEF7E6F90020FC
:1021D000FEF7E3F93320FEF7E0F90020FEF7DDF922
:1021E0004520FEF7DAF90020FEF7D7F9E820FEF7E0
:1021F000D1F90020FEF7D1F90020FEF7CEF99920A1
:10220000FEF7CBF90020FEF7C8F98720FEF7C5F9E5
:102210000020FEF7C2F98820FEF7BFF90020FEF784
:10222000BCF97720FEF7B9F90020FEF7B6F9662071
:10223000FEF7B3F90020FEF7B0F98820FEF7ADF9FC
:102240000020FEF7AAF9AA20FEF7A7F90020FEF762
:10225000A4F9BB20FEF7A1F90020FEF79EF9992012
:10226000FEF79BF90020FEF798F96620FEF795F936
:102270000020FEF792F95520FEF78FF90020FEF7B7
:102280008CF95520FEF789F90020FEF786F94420E5
:10229000FEF783F90020FEF780F94420FEF77DF970
:1022A0000020FEF77AF95520FEF777F90020FEF7B7
:1022B00074F9E920FEF76EF9AA20FEF76EF9002006
:1022C000FEF76BF90020FEF768F90020FEF765F9CC
:1022D0000020FEF75FF9AA20FEF75FF9CF20FEF796
:1022E00059F90020FEF759F90020FEF756F90020B1
:1022F000FEF753F90020FEF750F90020FEF74DF9E4
:102300000020FEF74AF90020FEF747F90020FEF70B
:1023100044F90020FEF741F90020FEF73EF90020C5
:10232000FEF73BF90020FEF738F90020FEF735F9FB
:102330000020FEF732F90020FEF72FF90020FEF70B
:102340002CF90020FEF729F9F020FEF723F90020F0
:10235000FEF723F95020FEF720F90020FEF71DF9C3
:102360000020FEF71AF90020FEF717F9F320FEF718
:1023700011F90020FEF711F9F920FEF70BF90620FC
:10238000FEF70BF91020FEF708F92920FEF705F9F2
:102390000020FEF702F93A20FEF7FCF85520FEF780
:1023A000FCF81120FEF7F6F8642001F044FC292027
:1023B000FEF7F0F83520FEF7EDF80020FEF7EDF817
:1023C0005120FEF7E7F8FF20FEF7E7F85320FEF76D
:1023D000E1F82C20FEF7E1F85520FEF7DBF882202B
:1023E000FEF7DBF82C20FEF7D5F801F048B8FE48E0
:1023F000808845F2105188427ED155214FF47040BB
:10240000FEF7D7F8AA214FF20100FEF7D2F85221C9
:102410004FF20200FEF7CDF808214FF20300FEF75D
:10242000C8F801214FF20400FEF7C3F80D214FF464
:102430003040FEF7BEF80D214BF20100FEF7B9F86F
:102440000D214BF20200FEF7B4F834214FF4364070
:10245000FEF7AFF834214BF20160FEF7AAF8342101
:102460004BF20260FEF7A5F80D214FF43140FEF764
:10247000A0F80D214BF20110FEF79BF80D214BF255
:102480000210FEF796F834214FF43740FEF791F82A
:1024900034214BF20170FEF78CF834214BF20270BC
:1024A000FEF787F800214FF43240FEF782F8002152
:1024B0004BF20120FEF77DF800214BF20220FEF7DF
:1024C00078F824214FF43840FEF773F824214BF6B6
:1024D0000100FEF76EF824214BF60200FEF769F8C2
:1024E00001214FF43F40FEF764F80F214FF43340D1
:1024F000FEF75FF80F2100E0FEE34BF20130FEF73C
:1025000058F80F214BF20230FEF753F834214FF404
:102510003940FEF74EF834214BF60110FEF749F82A
:1025200034214BF60210FEF744F808214FF43540F1
:10253000FEF73FF808214BF20150FEF73AF8082168
:102540004BF20250FEF735F803214FF44240FEF7FC
:1025500030F824214FF43A40FEF72BF824214BF6B3
:102560000120FEF726F824214BF60220FEF721F881
:1025700000214FF43C40FEF71CF878214BF6014057
:10258000FEF717F800214BF60240FEF712F8002183
:102590004FF43D40FEF70DF878214BF60150FEF761
:1025A00008F800214BF60250FEF703F800214FF423
:1025B0003E40FDF7FEFF64214BF60160FDF7F9FF99
:1025C00000214FF45140FDF7F4FF33214DF201108B
:1025D000FDF7EFFF00214DF20210FDF7EAFF342175
:1025E0004DF20310FDF7E5FF00214DF20410FDF759
:1025F000E0FF3A214DF20510FDF7DBFF00214DF21F
:102600000610FDF7D6FF4A214DF20710FDF7D1FF66
:1026100000214DF20810FDF7CCFF5C214DF20910AE
:10262000FDF7C7FF00214DF20A10FDF7C2FF81211F
:102630004DF20B10FDF7BDFF00214DF20C10FDF720
:10264000B8FFA6214DF20D10FDF7B3FF00214DF2AA
:102650000E10FDF7AEFFE5214DF20F10FDF7A9FFBB
:1026600001214DF21010FDF7A4FF13214DF21110BE
:10267000FDF79FFF01214DF21210FDF79AFF542143
:102680004DF21310FDF795FF01214DF21410FDF7E7
:1026900090FF82214DF21510FDF78BFF01214DF2C5
:1026A0001610FDF786FFCA214DF21710FDF781FFC6
:1026B00002214DF21810FDF77CFF00214DF2191098
:1026C000FDF777FF02214DF21A10FDF772FF01218D
:1026D0004DF21B10FDF76DFF02214DF21C10FDF7AE
:1026E00068FF34214DF21D10FDF763FF02214DF20A
:1026F0001E10FDF75EFF67214DF21F10FDF759FF19
:1027000002214DF22010FDF754FF84214DF22110DB
:10271000FDF74FFF02214DF22210FDF74AFFA421E1
:102720004DF22310FDF745FF02214DF22410FDF775
:1027300040FFB7214DF22510FDF73BFF02214DF27E
:102740002610FDF736FFCF214DF22710FDF731FFA0
:1027500002214DF22810FDF72CFFDE214DF2291049
:10276000FDF727FF02214DF22A10FDF722FFF2218B
:102770004DF22B10FDF71DFF02214DF22C10FDF73D
:1027800018FFFE214DF22D10FDF713FF03214DF22E
:102790002E10FDF70EFF10214DF22F10FDF709FF4F
:1027A00003214DF23010FDF704FF33214DF23110BB
:1027B000FDF7FFFE03214DF23210FDF7FAFE6D2109
:1027C0004DF23310FDF7F5FE00214FF45240FDF7B6
:1027D000F0FE33214DF20120FDF7EBFE00214DF21A
:1027E0000220FDF7E6FE01E03C00002034214DF21E
:1027F0000320FDF7DEFE00214DF20420FDF7D9FE97
:102800003A214DF20520FDF7D4FE00214DF20620BD
:10281000FDF7CFFE4A214DF20720FDF7CAFE002149
:102820004DF20820FDF7C5FE5C214DF20920FDF7B1
:10283000C0FE00214DF20A20FDF7BBFE81214DF2C2
:102840000B20FDF7B6FE00214DF20C20FDF7B1FE86
:10285000A6214DF20D20FDF7ACFE00214DF20E2019
:10286000FDF7A7FEE5214DF20F20FDF7A2FE0121A5
:102870004DF21020FDF79DFE13214DF21120FDF7C2
:1028800098FE01214DF21220FDF793FE54214DF2E6
:102890001320FDF78EFE01214DF21420FDF789FE75
:1028A00082214DF21520FDF784FE01214DF2162004
:1028B000FDF77FFECA214DF21720FDF77AFE0221B7
:1028C0004DF21820FDF775FE00214DF21920FDF79D
:1028D00070FE02214DF21A20FDF76BFE01214DF230
:1028E0001B20FDF766FE02214DF21C20FDF761FE64
:1028F00034214DF21D20FDF75CFE02214DF21E2019
:10290000FDF757FE67214DF21F20FDF752FE022111
:102910004DF22020FDF74DFE84214DF22120FDF7E0
:1029200048FE02214DF22220FDF743FEA4214DF284
:102930002320FDF73EFE02214DF22420FDF739FE53
:10294000B7214DF22520FDF734FE02214DF226205D
:10295000FDF72FFECF214DF22720FDF72AFE0221A1
:102960004DF22820FDF725FEDE214DF22920FDF74E
:1029700020FE02214DF22A20FDF71BFEF2214DF22E
:102980002B20FDF716FE02214DF22C20FDF711FE43
:10299000FE214DF22D20FDF70CFE03214DF22E20DD
:1029A000FDF707FE10214DF22F20FDF702FE032157
:1029B0004DF23020FDF7FDFD33214DF23120FDF7C2
:1029C000F8FD03214DF23220FDF7F3FD6D214DF2AC
:1029D0003320FDF7EEFD00214FF45340FDF7E9FDF4
:1029E00033214DF20130FDF7E4FD00214DF20230BC
:1029F000FDF7DFFD34214DF20330FDF7DAFD002154
:102A00004DF20430FDF7D5FD3A214DF20530FDF7CA
:102A1000D0FD00214DF20630FDF7CBFD4A214DF2ED
:102A20000730FDF7C6FD00214DF20830FDF7C1FD6E
:102A30005C214DF20930FDF7BCFD00214DF20A305A
:102A4000FDF7B7FD81214DF20B30FDF7B2FD0021FE
:102A50004DF20C30FDF7ADFDA6214DF20D30FDF726
:102A6000A8FD00214DF20E30FDF7A3FDE5214DF24A
:102A70000F30FDF79EFD01214DF21030FDF799FD5D
:102A800013214DF21130FDF794FD01214DF212306A
:102A9000FDF78FFD54214DF21330FDF78AFD012122
:102AA0004DF21430FDF785FD82214DF21530FDF712
:102AB00080FD01214DF21630FDF77BFDCA214DF25C
:102AC0001730FDF776FD02214DF21830FDF771FD4C
:102AD00000214DF21930FDF76CFD02214DF21A3044
:102AE000FDF767FD01214DF21B30FDF762FD02216C
:102AF0004DF21C30FDF75DFD34214DF21D30FDF728
:102B000058FD02214DF21E30FDF753FD67214DF2B5
:102B10001F30FDF74EFD02214DF22030FDF749FD3B
:102B200084214DF22130FDF744FD02214DF2223087
:102B3000FDF73FFDA4214DF22330FDF73AFD0221C0
:102B40004DF22430FDF735FDB7214DF22530FDF76C
:102B500030FD02214DF22630FDF72BFDCF214DF245
:102B60002730FDF726FD02214DF22830FDF721FD2B
:102B7000DE214DF22930FDF71CFD02214DF22A30F5
:102B8000FDF717FDF2214DF22B30FDF712FD02216A
:102B90004DF22C30FDF70DFDFE214DF22D30FDF7ED
:102BA00008FD03214DF22E30FDF703FD10214DF2FB
:102BB0002F30FDF7FEFC03214DF23030FDF7F9FC1C
:102BC00033214DF23130FDF7F4FC03214DF2323068
:102BD000FDF7EFFC6D214DF23330FDF7EAFC0021EB
:102BE0004FF45440FDF7E5FC33214DF20140FDF771
:102BF000E0FC00214DF20240FDF7DBFC34214DF2F8
:102C00000340FDF7D6FC00214DF20440FDF7D1FC56
:102C10003A214DF20540FDF7CCFC00214DF2064073
:102C2000FDF7C7FC4A214DF20740FDF7C2FC002129
:102C30004DF20840FDF7BDFC5C214DF20940FDF767
:102C4000B8FC00214DF20A40FDF7B3FC81214DF2A2
:102C50000B40FDF7AEFC00214DF20C40FDF7A9FC46
:102C6000A6214DF20D40FDF7A4FC00214DF20E40CF
:102C7000FDF79FFCE5214DF20F40FDF79AFC012185
:102C80004DF21040FDF795FC13214DF21140FDF778
:102C900090FC01214DF21240FDF78BFC54214DF2C6
:102CA0001340FDF786FC01214DF21440FDF781FC35
:102CB00082214DF21540FDF77CFC01214DF21640BA
:102CC000FDF777FCCA214DF21740FDF772FC022197
:102CD0004DF21840FDF76DFC00214DF21940FDF753
:102CE00068FC02214DF21A40FDF763FC01214DF210
:102CF0001B40FDF75EFC00E003E302214DF21C40A7
:102D0000FDF757FC34214DF21D40FDF752FC022126
:102D10004DF21E40FDF74DFC67214DF21F40FDF7BF
:102D200048FC02214DF22040FDF743FC84214DF286
:102D30002140FDF73EFC02214DF22240FDF739FC17
:102D4000A4214DF22340FDF734FC02214DF2244032
:102D5000FDF72FFCB7214DF22540FDF72AFC02219B
:102D60004DF22640FDF725FCCF214DF22740FDF71F
:102D700020FC02214DF22840FDF71BFCDE214DF224
:102D80002940FDF716FC02214DF22A40FDF711FC07
:102D9000F2214DF22B40FDF70CFC02214DF22C40AC
:102DA000FDF707FCFE214DF22D40FDF702FC03214B
:102DB0004DF22E40FDF7FDFB10214DF22F40FDF7A7
:102DC000F8FB03214DF23040FDF7F3FB33214DF2C8
:102DD0003140FDF7EEFB03214DF23240FDF7E9FBF8
:102DE0006D214DF23340FDF7E4FB00214FF45540D7
:102DF000FDF7DFFB33214DF20150FDF7DAFB002137
:102E00004DF20250FDF7D5FB34214DF20350FDF792
:102E1000D0FB00214DF20450FDF7CBFB3A214DF2DF
:102E20000550FDF7C6FB00214DF20650FDF7C1FB32
:102E30004A214DF20750FDF7BCFB00214DF208502E
:102E4000FDF7B7FB5C214DF20950FDF7B2FB002105
:102E50004DF20A50FDF7ADFB81214DF20B50FDF70D
:102E6000A8FB00214DF20C50FDF7A3FBA6214DF26B
:102E70000D50FDF79EFB00214DF20E50FDF799FB22
:102E8000E5214DF20F50FDF794FB01214DF210505A
:102E9000FDF78FFB13214DF21150FDF78AFB012145
:102EA0004DF21250FDF785FB54214DF21350FDF702
:102EB00080FB01214DF21450FDF77BFB82214DF286
:102EC0001550FDF776FB01214DF21650FDF771FB11
:102ED000CA214DF21750FDF76CFB02214DF218503C
:102EE000FDF767FB00214DF21950FDF762FB02214F
:102EF0004DF21A50FDF75DFB01214DF21B50FDF71D
:102F000058FB02214DF21C50FDF753FB34214DF2CA
:102F10001D50FDF74EFB02214DF21E50FDF749FBFF
:102F200067214DF21F50FDF744FB02214DF2205066
:102F3000FDF73FFB84214DF22150FDF73AFB0221C2
:102F40004DF22250FDF735FBA4214DF22350FDF741
:102F500030FB02214DF22450FDF72BFBB7214DF23F
:102F60002550FDF726FB02214DF22650FDF721FBEF
:102F7000CF214DF22750FDF71CFB02214DF22850C6
:102F8000FDF717FBDE214DF22950FDF712FB022160
:102F90004DF22A50FDF70DFBF2214DF22B50FDF7BB
:102FA00008FB02214DF22C50FDF703FBFE214DF2F0
:102FB0002D50FDF7FEFA03214DF22E50FDF7F9FAE0
:102FC00010214DF22F50FDF7F4FA03214DF230504D
:102FD000FDF7EFFA33214DF23150FDF7EAFA032104
:102FE0004DF23250FDF7E5FA6D214DF23350FDF709
:102FF000E0FA00214FF45640FDF7DBFA33214DF2A1
:103000000160FDF7D6FA00214DF20260FDF7D1FA1A
:1030100034214DF20360FDF7CCFA00214DF204603B
:10302000FDF7C7FA3A214DF20560FDF7C2FA00211B
:103030004DF20660FDF7BDFA4A214DF20760FDF73B
:10304000B8FA00214DF20860FDF7B3FA5C214DF2A9
:103050000960FDF7AEFA00214DF20A60FDF7A9FA0A
:1030600081214DF20B60FDF7A4FA00214DF20C60B6
:10307000FDF79FFAA6214DF20D60FDF79AFA0021A7
:103080004DF20E60FDF795FAE5214DF20F60FDF768
:1030900090FA01214DF21060FDF78BFA13214DF2E9
:1030A0001160FDF786FA01214DF21260FDF781FAF9
:1030B00054214DF21360FDF77CFA01214DF21460AA
:1030C000FDF777FA82214DF21560FDF772FA0121C2
:1030D0004DF21660FDF76DFACA214DF21760FDF74B
:1030E00068FA02214DF21860FDF763FA00214DF2F3
:1030F0001960FDF75EFA02214DF21A60FDF759FAE8
:1031000001214DF21B60FDF754FA02214DF21C60C3
:10311000FDF74FFA34214DF21D60FDF74AFA022106
:103120004DF21E60FDF745FA67214DF21F60FDF775
:1031300040FA02214DF22060FDF73BFA84214DF266
:103140002160FDF736FA02214DF22260FDF731FAD7
:10315000A4214DF22360FDF72CFA02214DF22460E8
:10316000FDF727FAB7214DF22560FDF722FA02217B
:103170004DF22660FDF71DFACF214DF22760FDF7D5
:1031800018FA02214DF22860FDF713FADE214DF204
:103190002960FDF70EFA02214DF22A60FDF709FAC7
:1031A000F2214DF22B60FDF704FA02214DF22C6062
:1031B000FDF7FFF9FE214DF22D60FDF7FAF903212D
:1031C0004DF22E60FDF7F5F910214DF22F60FDF75D
:1031D000F0F903214DF23060FDF7EBF933214DF2A8
:1031E0003160FDF7E6F903214DF23260FDF7E1F9B8
:1031F0006D214DF23360FDF7DCF955214FF470403D
:10320000FDF7D7F9AA214FF20100FDF7D2F95221BB
:103210004FF20200FDF7CDF908214FF20300FDF750
:10322000C8F900214FF20400FDF7C3F9CC214FF497
:103230003140FDF7BEF900214BF20110FDF7B9F95D
:1032400005214FF43640FDF7B4F970214FF43740B3
:10325000FDF7AFF970214BF20170FDF7AAF90121DA
:103260004FF43840FDF7A5F903214BF60100FDF7B7
:10327000A0F903214BF60200FDF79BF903214BF661
:103280000300FDF796F902214FF43C40FDF791F958
:1032900000214BF60140FDF78CF900214BF602406E
:1032A000FDF787F9D0214FF44940FDF782F902215B
:1032B0004CF60110FDF77DF950214CF60210FDF798
:1032C00078F950214CF60310FDF773F950214CF6B4
:1032D0000410FDF76EF900214FF45450FDF769F921
:1032E00055214FF46850FDF764F94FF48850FDF70D
:1032F00051F9782000F07BFC4FF42450FDF74AF997
:10330000BDE0FE48808841F663118842F8D1E22092
:10331000FDF740F91D20FDF740F90220FDF73DF9CA
:103320000420FDF73AF9642000F061FCE020FDF78D
:1033300031F90120FDF731F90A2000F07CFCE02092
:10334000FDF728F90320FDF728F90C2000F073FCA5
:103350000120FDF71FF90A2000F06DFCE620FDF7C3
:1033600019F92F20FDF719F9FF20FDF716F9FF20B5
:10337000FDF713F9B020FDF70DF92020FDF70DF949
:103380000020FDF70AF90320FDF707F940F21F308E
:10339000FDF703F90120FDF700F940F2DF10FDF71A
:1033A000FCF80020FDF7F9F8B420FDF7F3F804204D
:1033B000FDF7F3F840F21F40FDF7EFF80020FDF7AE
:1033C000ECF82E20FDF7E9F80020FDF7E6F80020E4
:1033D000FDF7E3F80020FDF7E0F80020FDF7DDF849
:1033E000B620FDF7D7F80220FDF7D7F84FF40370A9
:1033F000FDF7D3F80020FDF7D0F81720FDF7CDF842
:103400001520FDF7CAF80020FDF7C7F80020FDF7EA
:10341000C4F8F020FDF7BEF80320FDF7BEF8292020
:10342000FDF7B8F8D020FDF7B5F80020FDF7B5F8A6
:10343000BE20FDF7AFF80520FDF7AFF8FE20FDF741
:10344000ACF80120FDF7A9F80020FDF7A6F8002050
:10345000FDF7A3F80020FDF7A0F8B820FDF79AF8D3
:103460000320FDF79AF80120FDF797F8BA20FDF741
:1034700091F80120FDF791F86420FDF753FB00203F
:10348000FDF778FB01209E4908604FF6FF70FDF7BD
:10349000BCFC1FB000BD2DE9F04F05460E46174697
:1034A0009846DDF824A04FF0000B781B401C1FFA53
:1034B00080FB344613E021462846FDF7A7F8FDF7C8
:1034C00088F84FF0000906E08E48A0F800A009F146
:1034D00001001FFA80F9D945F6DB601C84B244452F
:1034E000E9DDBDE8F08F2DE9F84F07460D4690461F
:1034F0009946DDF828B0A8EB0700401C1FFA80FAB7
:10350000A9EB0500401C80B20090002414E02819AB
:1035100081B23846FDF77AF8FDF75BF8002607E040
:1035200004FB0A603BF8100076490880701C86B2E4
:103530005645F5DB601C84B200988442E7DBBDE8A9
:10354000F88F2DE9FF4F84B081468A460020039012
:1035500002900698A0EB09050798A0EB0A06CDF8A3
:103560000490CDF800A0002D01DD012705E00DB984
:10357000002702E04FF0FF376D42002E02DD4FF0D2
:10358000010806E016B94FF0000802E04FF0FF38DE
:103590007642B54201DD2C4600E034464FF0000B88
:1035A00021E0009A91B2019A90B2FDF738FA03989F
:1035B000284403900298304402900398A04205DD0D
:1035C0000398001B03900198384401900298A04290
:1035D00005DD0298001B02900098404400900BF11A
:1035E00001001FFA80FB601C8345DADD08B0BDE8EE
:1035F000F08FF0B504460D4616461F462B46324660
:1036000029462046FFF79DFF3B4622462946204695
:10361000FFF797FF3B46324639462046FFF791FFBA
:103620003B46324629463046FFF78BFFF0BD2DE979
:10363000F04306460F469046002445460320A0EB83
:1036400048093CE07A1B91B2321990B2FDF7E7F9D4
:103650003A1B91B2721990B2FDF7E1F93A1991B2A1
:10366000721990B2FDF7DBF97A1991B2321990B262
:10367000FDF7D5F97A1991B2321B90B2FDF7CFF967
:103680003A1991B2721B90B2FDF7C9F97A1B91B247
:10369000321B90B2FDF7C3F93A1B91B2721B90B284
:1036A000FDF7BDF9641CB9F1000F03DAA000801D1D
:1036B000814404E0601B80000A3081446D1EAC42EE
:1036C000C0DDBDE8F0832DE9F84F80460E46174671
:1036D0001C46B3462046E31704EB5373DB10214628
:1036E0004FEAE47C04EB5C7C4FEAEC0CA4EBCC0CE2
:1036F000BCF1000F08D04FF0010C07E03C000020A7
:10370000808121420008006C4FF0000C6344224687
:1037100004EBD27C4FEA6C0C03FB0CF3DBB200939E
:10372000A7F12000C7B2002556E00C2C07D107EB0B
:1037300047009F4901EB800010F8059013E0102C22
:1037400005D19C4800EB071010F805900BE0182CF1
:1037500007D107EBC700984901EB800010F80590EE
:1037600001E0BDE8F88F4FF0000A2FE009F080007B
:1037700030B19248028831464046FDF75EF907E0D5
:103780000A9828B98E48028831464046FDF755F917
:103790004FEA49604FEA1069701C86B28948408838
:1037A000B04200DCDDE7A6EB0B00A0420AD15E468A
:1037B00008F101001FFA80F882480088404500DCCB
:1037C000CFE706E00AF1010000F0FF0ABAF1080FA6
:1037D000CCDB00BF681CC5B200988542A5DB00BFEA
:1037E000BFE710B50246012000E050430B00A1F1F5
:1037F0000104E1B2F9D110BD2DE9FF4F81B00746B8
:1038000091461E460E9D4FF0000A002439E0301B01
:10381000401EC1B20A20FFF7E4FFB9FBF0F00A2115
:10382000B0FBF1F201FB1208BAF1000F16D1701EC5
:10383000A04213DDB8F1000F0ED10020AB4605EB1E
:10384000DB71491001FB0471009088B22B462022E5
:103850000299FFF738FF12E04FF0010A0020AB4653
:1038600005EBDB71491001FB0471009088B208F18F
:103870003001CAB22B460299FFF725FF00BF601C3A
:10388000C4B2B442C3DB05B0BDE8F08F2DE9FF4FF1
:1038900082B0064692461F46DDE90F48002001909F
:1038A00000254DE0781B401EC1B20A20FFF799FFAA
:1038B000BAFBF0F00A21B0FBF1F201FB120901980A
:1038C00050BB781EA84227DDB9F1000F22D108F0C5
:1038D000800078B108F00100A34604EBDB714910C9
:1038E00001FB0561009088B2234630220399FFF75F
:1038F000EAFE0EE008F00100A34604EBDB7149107C
:1039000001FB0561009088B2234620220399FFF74E
:10391000DAFE13E00120019008F00100A34604EB59
:10392000DB71491001FB0561009088B209F130019B
:10393000CAB223460399FFF7C6FE00BF681CC5B292
:10394000BD42AFDB06B0BDE8F08F2DE9F847044675
:103950000D4690469946DDE9096704F0FF0A08EB39
:1039600004001FFA80F809EB05001FFA80F916E041
:10397000444502DB5446A81985B24D4500DB14E0EE
:10398000002000903A78334629462046FFF79BFEF8
:10399000304606EBD07104EB61018CB27F1C3878A5
:1039A0007E2802DC38782028E2DA00BFBDE8F887FC
:1039B00036570008AA5B00089A610008160000202C
:1039C000180000203C00002010B540F2255173483B
:1039D00001F0C4FA80B1714801F040FAC4B27048F5
:1039E0000078402808DA6F486D49097844546C48DB
:1039F0000078401C6A49087010BD10B586B00446B6
:103A00000121242001F086F80121480401F08FF8FB
:103A10008020ADF8140010208DF8170003208DF8D9
:103A2000160005A9604800F0B9FD0420ADF81400A7
:103A300018208DF8170005A95C4800F0AFFD08209C
:103A4000ADF8140004208DF8170005A9574800F0C0
:103A5000A5FD0121480401F084F800214FF4003055
:103A600001F07FF801940020ADF80800ADF80A00DD
:103A7000ADF80C00ADF810000C20ADF80E0001A957
:103A8000464801F0EEF826208DF8000003208DF85E
:103A900001008DF8020001208DF80300684600F057
:103AA000AEF9012240F225513C4801F072F90121A2
:103AB0003A4801F062F900203D49086006B010BDA7
:103AC00070B505460E4601203949086000240CE017
:103AD00000BF4021314801F02BFA0028F9D0295DC0
:103AE0002E4801F0B7F9601CC4B2B442F0DB00BF4D
:103AF00040212A4801F01CFA0028F9D0002028496A
:103B000008702B49086070BD2DE9F04107460D464D
:103B1000234806780024002028700A2000F08BF843
:103B20001F48007886420FD176B100BF04E01D48DF
:103B3000005D3855601CC4B2B442F8DB1848007808
:103B40002870002016490870BDE8F0811CB519A145
:103B500003C9CDE9000101201549086000240DE0EA
:103B600000BF40210D4801F0E3F90028F9D01DF80D
:103B700004100A4801F06EF9601CC4B2082CEFDB97
:103B800000BF4021054801F0D3F90028F9D00020FA
:103B900003490870064908601CBD0000004400404D
:103BA0001A0000204A0000200014014000080140D3
:103BB0009C812242010300000002C40B10B56FF08B
:103BC000040000F066F92E4800682E49B0FBF1F0C1
:103BD0002D4908700846007800EB4001C1EBC01089
:103BE0004FF6FF7101EAC0002849088010BD014668
:103BF000254A12784A434FF0E0235A6100229A6125
:103C00001A46126942F001021A6100BF4FF0E02229
:103C1000106900F001021AB100F48032002AF5D0D8
:103C20004FF0E022126922F001024FF0E0231A6106
:103C300000229A6170470146144A12884A434FF0A5
:103C4000E0235A6100229A611A46126942F0010289
:103C50001A6100BF4FF0E022106900F001021AB1B2
:103C600000F48032002AF5D04FF0E022126922F0F1
:103C700001024FF0E0231A6100229A6170470000B0
:103C80000000002000127A001C0000201E0000200E
:103C900000BF704700BF4A4A128802F04002002A63
:103CA000F9D0C2B2464B1B1D1A80704710B586B0C2
:103CB0000446012144F2040000F02CFF4FF4007090
:103CC000ADF8140003208DF8160018208DF81700A9
:103CD00005A93C4800F062FC4FF48060ADF8140088
:103CE00004208DF8170005A9364800F057FC252060
:103CF0008DF8000003208DF801008DF802000120EE
:103D00008DF80300684600F07AF801940020ADF8C1
:103D10000800ADF80A00ADF80C00ADF810000C205A
:103D2000ADF80E0001A9264800F09BFF012240F2E9
:103D30002551234801F02DF80121214801F01DF8FB
:103D400006B010BD10B540F225511D4801F006F92E
:103D500010B31B4801F082F8C4B21B48008800F47D
:103D60000040C8B91848008800F4804060B10A2CAF
:103D700003D000201449088020E01348008840F454
:103D800000401149088019E00D2C06D10E4800882A
:103D900040F480400C49088010E00B480088C0F3D4
:103DA0000D000A490C5408480088401C0649088048
:103DB00008460088C72801DD0020088010BD0000EB
:103DC0000038014000080140240000208A00002043
:103DD0000648804706480047FEE7FEE7FEE7FEE7A5
:103DE000FEE7FEE7FEE7FEE7FEE7FEE76F030008FB
:103DF0003101000831490143314A1160704770B503
:103E0000002100230F22C47804B32D4C246804F44D
:103E1000E064C4F5E064210AC1F10403CA404478B7
:103E200004FA03F18478144021430901254C0678F3
:103E3000A155047804F01F050124AC4005786D11EC
:103E4000AD0005F1E025C5F8004109E0047804F073
:103E50001F050124AC401C4D0678761145F826401C
:103E600070BD1A4A0A400243154B1B1F1A60704767
:103E700039B1134A121D12680243114B1B1D1A60FF
:103E800006E00F4A121D126882430D4B1B1D1A607B
:103E90007047042808D14FF0E021096941F004017E
:103EA0004FF0E022116107E04FF0E021096921F0B5
:103EB00004014FF0E0221161704700000000FA0594
:103EC0000CED00E000E400E080E100E080FFFF1F77
:103ED00030B943F2DB028100A1F1C0410A6005E084
:103EE00043F2D2028100A1F1C0410A606FF070423A
:103EF000411C8900A1F1C0410A608100A1F1C041CB
:103F0000C1F80421704710280AD118214FF020422F
:103F10001166402151664FF0FC319166D16610E088
:103F20001821F74A116040214FF02042C2F8841056
:103F30004FF0FC31F24A083211604FF02042C2F8D3
:103F40008C1070471820EE492031086000200906C7
:103F5000C1F8A4004FF0FC30E94928310860091D80
:103F60000860091D08607047D0E901121143C2685A
:103F70001143026911434269114382691143C269C5
:103F80001143026A1143426A1143826A1143C26AB1
:103F90001143026B114302689200A2F1C04211600A
:103FA000816808290BD101688900A1F1C041096825
:103FB00041F0400201688900A1F1C0410A60416BF3
:103FC0000968426B526841EA0211426B926841EA09
:103FD0000221426B928941EA0241426B128A41EA14
:103FE0000251426B127D41EA0261426B92691143B8
:103FF0000268521C9200A2F1C0421160C16AB1F580
:10400000804F1BD1816B0968826B526841EA0211B3
:10401000826B926841EA0221826B128A41EA025164
:10402000826B127D41EA0261826B926911430268E0
:104030009200A2F1C042C2F8041107E06FF0704292
:1040400001688900A1F1C041C1F80421704730B571
:10405000002100220023446844F0080485682C43B2
:10406000C5682C4305692C43456944EA45248569A4
:1040700044EA4531C4692468C5696D6844EA052489
:10408000C5692D8944EA0544C5692D7B44EA05626A
:10409000046A2468056A6D6844EA0524056A2D8966
:1040A00044EA0544056A2D7B44EA05630468102C44
:1040B00005D14FF020442166A266E36608E0904CEB
:1040C00021604FF02044C4F888208D4C0C342360CC
:1040D00030BD016841F01001426841EA4221826826
:1040E00041EA4231864A20321160C1680968C268DB
:1040F000526841EA0221C268128941EA0241C2685B
:10410000127B41EA02617E4A283211600169096826
:104110000269526841EA02210269128941EA0241B8
:104120000269127B41EA0261754A2C3211604169D1
:1041300009684269526841EA02214269128941EAEA
:1041400002414269127B41EA02614FF02042C2F80B
:10415000B0107047002101600221416000218160A0
:10416000C160016141618161C16101624FF48051AF
:104170004162490081620021C16201630F21426BEB
:104180001160426B5160FF21426B91600F21426BC5
:10419000D160426B1161426B51610021426B9161B0
:1041A0000F21826B1160826B5160FF21826B9160E5
:1041B0000F21826BD160826B1161826B5161002192
:1041C000826B916170471021016000214160816024
:1041D000C160016141618161FC21C2691160C269F4
:1041E0005160C2699160C269D160026A1160026A5D
:1041F0005160026A9160026AD160704700210160DB
:1042000041608160FC21C2681160C2685160C2686F
:104210009160C268D16002691160026951600269EF
:1042200091600269D16042691160426951604269DE
:1042300091604269D160704751B18200A2F1C042E1
:10424000126842F001038200A2F1C042136009E04B
:104250008200A2F1C04212682A4B1A408300A3F1E7
:10426000C0431A60704799B1102808D14FF020421E
:10427000126E42F004024FF020431A661DE0204AFD
:10428000126842F004024FF02043C3F8802014E08B
:10429000102809D14FF02042126E1A4BDB1E1A4033
:1042A0004FF020431A6608E0154A1268154BDB1ED2
:1042B0001A404FF02043C3F88020704748B110499E
:1042C0002031096841F004014FF02042C2F8A010EB
:1042D00009E00B49203109680A4AD21E11404FF00B
:1042E0002042C2F8A0107047B9B110280CD14FF08D
:1042F0002042126E42F040024FF020431A661FE047
:10430000800000A0FEFF0F00724A126842F04002D7
:104310004FF02043C3F8802012E0102808D14FF05E
:104320002042126E6C4B1A404FF020431A6607E091
:10433000684A1268684B1A404FF02043C3F8802047
:10434000704701460020102903D14FF02042506FE2
:1043500002E0604A14321068704710B5F2B11028BC
:1043600007D14FF020435B6E0B434FF02044636650
:1043700032E0B0F5807F08D1564B1B1D1B680B4304
:104380004FF02044C4F8843026E0524B24331B689D
:104390000B434FF02044C4F8A4301DE0102807D18F
:1043A0004FF020435B6E8B434FF02044636613E075
:1043B000B0F5807F08D1474B1B1D1B688B434FF026
:1043C0002044C4F8843007E0424B24331B688B43FD
:1043D0004FF02044C4F8A43010BD10B502460020B0
:1043E0000023102A03D14FF02044636E09E0B2F598
:1043F000807F03D1374C241D236802E0354C2434E0
:10440000236803EA01040CB1012000E0002010BD84
:10441000102807D14FF02042526E8A434FF02043BC
:104420005A6613E0B0F5807F08D12A4A121D12683F
:104430008A434FF02043C3F8842007E0254A243202
:1044400012688A434FF02043C3F8A420704770B528
:1044500002460020002300240025102A03D14FF03B
:104460002046736E09E0B2F5807F03D1194E361DE8
:10447000336802E0174E2436336803EA010403EA86
:10448000D10514B10DB1012000E0002070BD10284D
:1044900008D14FF02042526E22EAD1024FF0204361
:1044A0005A6615E0B0F5807F09D10A4A121D1268DC
:1044B00022EAD1024FF02043C3F8842008E0054AE5
:1044C0002432126822EAD1024FF02043C3F8A4201C
:1044D00070470000800000A0BFFF0F0010B5044629
:1044E000CC48844208D10121042000F02DFB00219A
:1044F000042000F029FB46E0C748844208D101218E
:10450000082000F021FB0021082000F01DFB3AE00C
:10451000C248844208D10121102000F015FB00217F
:10452000102000F011FB2EE0BD48844208D101218B
:10453000202000F009FB0021202000F005FB22E0F4
:10454000B848844208D10121402000F0FDFA002142
:10455000402000F0F9FA16E0B348844208D1012166
:10456000802000F0F1FA0021802000F0EDFA0AE04E
:10457000AE48844207D10121801500F0E5FA002100
:10458000A01500F0E1FA10BD10B50121084600F0B9
:10459000DBFA0021012000F0D7FA10BD2DE9F0412F
:1045A000024600250026002000230024002791F861
:1045B00003C00CF00F0591F803C00CF0100CBCF117
:1045C000000F03D091F802C04CEA050591F800C035
:1045D000BCF1000F31D0146800202BE04FF0010C2B
:1045E0000CFA00F3B1F800C00CEA03069E4220D199
:1045F00083004FF00F0C0CFA03F7BC4305FA03FCE1
:104600004CEA040491F803C0BCF1280F06D14FF026
:10461000010C0CFA00FCC2F814C00AE091F803C0C7
:10462000BCF1480F05D14FF0010C0CFA00FCC2F8A8
:1046300010C0401C0828D1D31460B1F800C0BCF1F0
:10464000FF0F34DD546800202EE000F1080C4FF01D
:10465000010808FA0CF3B1F800C00CEA03069E4208
:1046600021D183004FF00F0C0CFA03F7BC4305FA7D
:1046700003FC4CEA040491F803C0BCF1280F05D1F7
:1046800000F1080C08FA0CF8C2F8148091F803C085
:10469000BCF1480F07D100F1080C4FF0010808FAEF
:1046A0000CF8C2F81080401C0828CED35460BDE836
:1046B000F0814FF6FF710180022181700421C170E9
:1046C00070470246002093680B400BB1012000E0C8
:1046D000002070470146886880B27047024600207B
:1046E000D3680B400BB1012000E000207047014669
:1046F000C86880B2704701617047416170470AB174
:10470000016100E041617047C16070474FF4803241
:104710000A438261816182618269826970470246CF
:104720000020434B18684FF68073184040EA02108F
:1047300008433F4B186070473E49C8617047F0B569
:104740000A46002300240021002500F00046B6F1AF
:10475000004F02D1364EF16901E0354E7168C0F369
:10476000034583B200F44016B6F5401F08D121F08E
:1047700070612F4E766826F070662D4F7E6012E0D5
:1047800000F48016B6F5801F06D1032606FA05F45C
:10479000A14341F0706106E0460D360103FA06F6CA
:1047A000B14341F0706122B1460D360103FA06F6BD
:1047B000314300F00046B6F1004F02D11C4EF161CA
:1047C00001E01B4E7160F0BD30B500228B071C0F5D
:1047D0000F2303FA04F2164B08338C1053F82430DD
:1047E0009343134C08348D1044F8253023468C1025
:1047F00053F824308C07240F00FA04F423430C4CA4
:1048000008348D1044F8253030BD0A49DC31086089
:104810007047000000080140000C014000100140FA
:104820000014014000180140001C0140002001401C
:104830000000014000002042DF48006840F0010015
:10484000DD49086008464068DC490840DA494860AC
:1048500008460068DA490840D749086008460068F9
:1048600020F4802008600846406820F4FE0048607C
:104870004FF41F0088607047CF49096821F48031E8
:10488000CD4A11601146096821F480211160B0F50C
:10489000803F03D0B0F5802F0ED106E0C6490968ED
:1048A00041F48031C44A116007E0C349096841F40A
:1048B000A021C14A116000E000BF00BF704710B5E1
:1048C00001460022002300204A11012A02D1BA4CDD
:1048D000236806E0022A02D1B74C236A01E0B64CF5
:1048E000636A01F01F02012494401C400CB10120B6
:1048F00000E0002010BD38B5002000900024002505
:1049000000BF3120FFF7DBFF05460098401C0090F8
:104910000098B0F5A06F01D0002DF2D03120FFF744
:10492000CEFF08B1012400E00024204638BD014636
:104930000020A14A106820F0F80040EAC100106091
:104940007047A04908607047024600209A4B58689B
:1049500020F47C1042EA01031843974B58607047DB
:1049600098490866704701460020934A506820F035
:1049700003000843506070478F48406800F00C0007
:104980007047014600208C4A506820F0F000084330
:104990005060704701460020874A506820F4E0606C
:1049A00008435060704701460020834A506820F455
:1049B000605040EAC1005060704729B17E4A527A87
:1049C00002437D4B5A7204E07B4A527A82437A4B0F
:1049D0005A7270477B49D831086070470146002001
:1049E000754A506820F440400843506070470021E9
:1049F000714A20321170704A82F82010012802D0CA
:104A000004280AD104E001216B4A2032117005E02C
:104A10000521694A2032117000E000BF00BF7047D5
:104A20006949086070476449096A0143624A116232
:104A30007047654944390860704730B5002100224D
:104A4000002400235C4D6D6805F00C0121B10429A0
:104A500005D0082923D105E05C4D056022E05B4DBF
:104A600005601FE0544D6D6805F47012524D6D687D
:104A700005F48034022505EB92421CB9544D554390
:104A800005600BE04C4D6D6805F400351DB1504DCF
:104A90005543056002E04D4D5543056002E04B4D26
:104AA000056000BF00BF444D6D6805F0F0010909C5
:104AB000484D6B5C0568DD4045603F4D6D6805F411
:104AC000E061090A434D6B5C4568DD4085603A4D05
:104AD0006D6805F46051C90A3E4D6B5C4568DD4068
:104AE000C560354D6D6805F44041890B3A4D6B5CEE
:104AF000C568B5FBF3F5056130BD29B12E4A526991
:104B000002432D4B5A6104E02B4A526982432A4BDF
:104B10005A61704729B1284A92690243264B9A612B
:104B200004E0254A92698243234B9A61704729B178
:104B3000214AD2690243204BDA6104E01E4AD2695D
:104B400082431D4BDA61704729B11B4AD268024388
:104B5000194BDA6004E0184AD2688243164BDA60D7
:104B6000704729B1144A12690243134B1A6104E0D9
:104B7000114A12698243104B1A6170471249403939
:104B8000086070470F49C86470470B49C871704787
:104B90000948406A40F08070074948627047014602
:104BA0000020054A92680A400AB1012000E0002076
:104BB0007047014988727047001002400000FFF8FA
:104BC000FFFFF6FE000042428004424200127A00DB
:104BD00000093D00260000203600002010B50446E4
:104BE000FB48844209D101218803FFF7ADFF002172
:104BF0004FF48040FFF7A8FF32E0F648844209D125
:104C000001214804FFF7ADFF00214FF40030FFF70A
:104C1000A8FF25E0F048844209D101218804FFF76C
:104C2000A0FF00214FF48020FFF79BFF18E0EB4826
:104C3000844209D10121C804FFF793FF00214FF4FA
:104C40000020FFF78EFF0BE0E548844208D10121E8
:104C50000805FFF786FF00214FF48010FFF781FF62
:104C600010BD2DE9F04786B005460E460024A24649
:104C700000BFA1460027B08900B100BF2F462C8A93
:104C80004CF6FF700440F08804432C82AC894EF649
:104C9000F3100440B0883189084371890843044304
:104CA000AC81AC8A4FF6FF400440B0890443AC822B
:104CB00001A8FFF7C2FEC648874202D1DDF810A066
:104CC00001E0DDF80CA0A88900F4004040B10AEB37
:104CD000CA0000EB0A1031684900B0FBF1F807E0A8
:104CE0000AEBCA0000EB0A1031688900B0FBF1F84A
:104CF0006420B8FBF0F004012009642101FB108955
:104D0000A88900F4004040B1322000EBC900B0FB9C
:104D1000F1F000F00700044308E0322000EB091036
:104D20006421B0FBF1F000F00F0004432C8106B0C9
:104D3000BDE8F0874FF41651016000218180C180E9
:104D400001810C21418100218181704710B502460B
:104D50000020108A4FF2FF0318400B884C88234331
:104D60008C882343CC8823431843108210BD002134
:104D7000018041808180C180704721B1828942F4E5
:104D80000052828104E082894DF6FF731A408281CD
:104D90007047F0B50346002400260025002040F6A9
:104DA0006A17B94200D100BF1846C1F3421401F09E
:104DB0001F06012707FA06F5012C01D10C3004E08B
:104DC000022C01D1103000E014301AB107682F43D3
:104DD000076002E00768AF430760F0BD1AB1838A3D
:104DE0000B43838202E0838A8B4383827047028A6B
:104DF0004FF6F0731A400282028A0A430282704719
:104E000082894FF2FF731A40828182890A4382812C
:104E1000704721B1828942F00202828104E08289D6
:104E20004FF6FD731A4082817047028A4FF6DF7396
:104E30001A400282028A0A430282704721B1028A22
:104E400042F48042028204E0028A4BF6FF731A4069
:104E500002827047C1F30802828070470146888849
:104E6000C0F308007047818941F0010181817047DA
:104E7000028BD2B20283028B42EA01220283704784
:104E8000028B02F47F420283028B0A430283704743
:104E900021B1828A42F02002828204E0828A4FF6A7
:104EA000DF731A408282704721B1828A42F0100279
:104EB000828204E0828A4FF6EF731A408282704742
:104EC00021B1828A42F00802828204E0828A4FF68F
:104ED000F7731A408282704721B1828942F40042FE
:104EE000828103E08289C2F30E028281704721B180
:104EF000828A42F40062828204E0828A4FF2FF7367
:104F00001A4082827047828A4FF6FB731A4082826F
:104F1000828A0A438282704721B1828A42F0020269
:104F2000828204E0828A4FF6FD731A4082827047C3
:104F300002460020B1F5007F00D100BF13880B406E
:104F40000BB1012000E00020704701F40072B2F5BF
:104F5000007F00D100BFCA430280704770B502468F
:104F6000002400230025002040F66A16B14200D13B
:104F700000BFC1F3421501F01F03012606FA03F337
:104F8000012D02D19689334006E0022D02D1168A06
:104F9000334001E0968A33400C12012606FA04F4ED
:104FA0001688344013B10CB1012000E0002070BD20
:104FB00010B50022002340F66A14A14200D100BFC0
:104FC0000A1201249440A3B2DC43048010BD000007
:104FD000003801400044004000480040004C0040C0
:104FE000005000402DE9FE4F81EA030404F0004424
:104FF00021F0004100944FF0000B23F0004350EAF1
:1050000001045ED052EA03045BD0C3F30A54C1F337
:105010000A552C44A4F2F3340194A0FB0254C1F3CA
:10502000130141F48011C3F3130343F4801301FB14
:10503000024400FB034E840A970A44EA815447EA7B
:105040008357A4FB076802958D0A05FB07854FEA85
:10505000932C04FB0C542705029D4FEA065847EA9F
:105060001637B5EB08056EEB070C870E920E47EA74
:10507000811742EA8312A7FB0201B6EB0B0164EB36
:1050800000042B0D43EA0C335E1844EB1C50DA4647
:105090005146E7FB0201C5F313044FEA0B3343EA21
:1050A00014534FEA0432019C43EA0603A4F10C04B2
:1050B0000294009CCDE900B400F07CF803B0BDE898
:1050C000F08F00200146F9E70EB540F2334102911E
:1050D0000021CDE900110A460B4600F06BF803B041
:1050E00000BDC1F30A5210B5C1F3130140F2FF3302
:1050F00041F480119A4201DA002010BD40F233439E
:105100009A42A2F2334203DC524200F034F810BD5E
:10511000904010BD2DE9F05F0546002092469B4669
:1051200088460646814640241BE0284641464746BD
:10513000224600F020F853465A46C01A914110D337
:1051400011461846224600F095F82D1A67EB010823
:105150004F4622460120002100F08CF817EB000991
:105160004E41201EA4F10104DFDC484631462A46A8
:105170004346BDE8F09F202A04DB203A21FA02F0E2
:105180000021704721FA02F3D040C2F12002914081
:1051900008431946704710B5141E73F1000408DA6D
:1051A000401C41F1000192185B411A4301D120F0EB
:1051B000010010BD2DE9F04D92469B4611B1B1FAA8
:1051C00081F202E0B0FA80F22032904600F052F80C
:1051D00004460F4640EA0A0041EA0B0153465A468C
:1051E000084313D0114653EA010019D0C8F1400218
:1051F0005046FFF7C0FF05460E4650465946424608
:1052000000F038F8084305D0012004E02046394674
:10521000BDE8F08D0020054346EAE0762C43374395
:105220000A986305E40AA0EB08000022FD0A44EA9C
:1052300047540A3002D500200146E9E7010510195C
:105240006941DDE9084500196941BDE8F04DA2E773
:10525000064C074D06E0E06840F0010394E80700C3
:1052600098471034AC42F6D3FAF766FFF86E0008A0
:10527000186F0008202A04DB203A00FA02F100200F
:1052800070479140C2F1200320FA03F31943904084
:10529000704700000FB4054B10B503A9044A0298EB
:1052A00000F018F810BC5DF814FB0000953C0008F5
:1052B0002000002002E008C8121F08C1002AFAD10D
:1052C00070477047002001E001C1121F002AFBD186
:1052D000704700002DE9FF4F8DB00F4605460026B0
:1052E00006E025280BD0DDE90F1290476D1C761CD7
:1052F00028780028F5D111B03046BDE8F08F0024A1
:10530000A246A1460122EC4900E0044315F8013F02
:10531000203B02FA03F00842F7D128782A2810D05F
:105320006FF02F022878A0F13001092914D80AEB78
:105330008A0102EB410144F0020400EB010A6D1CFA
:10534000F0E701CF5FEA000A03D544F40054CAF144
:10535000000A44F002046D1C28782E2817D115F895
:10536000010F44F004042A280ED06FF02F02287891
:10537000A0F1300109290AD809EB890102EB4101AA
:1053800000EB01096D1CF2E757F8049B6D1C2878AF
:105390006C280FD006DC4C2817D068280DD06A285E
:1053A00014D104E0742810D07A280FD10DE044F411
:1053B00000140AE044F4801401E044F440146978D5
:1053C000814202D104F580146D1C6D1C2A786E2A6E
:1053D0001FD00CDC632A31D004DC002A8BD0582A81
:1053E00011D1A3E0642A68D0692A0CD165E0732A40
:1053F0002ED004DC6F2A73D0702A04D19BE0752A6A
:105400006FD0782A6ED01046DDE90F129047761CD7
:1054100050E1C4F30250022806D0032809D0042822
:1054200001CF09D0066045E101CFF117C0E9006165
:1054300040E101CF06803DE106703BE117F8040B27
:105440008DF8000000208DF80100EB46012003E0FC
:1054500057F804BB4FF0FF3061074FF0000102D452
:105460000DE008F10101884649450FDA8045F8DB77
:105470001BF808100029F4D108E008F10101884662
:105480008142FADB1BF808100029F6D1DDE90F2371
:10549000AAEB08008146214600F036F9304400EBC3
:1054A000080604E0DDE90F121BF8010B9047B8F184
:1054B0000108F7D221464846F7E00A21C4F3025317
:1054C0004FF0000B0891022B04D001CFC117032B22
:1054D00009D00AE0FF1D27F00707F7E8020108E0FE
:1054E00032E01FE020E000B2C117042B01D140B22E
:1054F000C117031E71F1000307DA4FF0000CD0EB67
:105500000C006CEB01012D2302E0230504D52B23B5
:105510008DF82430012303E0E30701D02023F7E7CF
:10552000984658E00A2110E010210EE010204FF0BC
:10553000000B08900CE010214FF0000B44F0040425
:105540004FF00809089103E008214FF0000B089183
:10555000C4F30253022B04D001CF0021032B06D049
:1055600006E0FF1D27F00707F7E8020103E080B21D
:10557000042B00D1C0B24FF0000823072BD5702AAE
:1055800007D0DDF820C08CF0100C5CEA0B0C05D0C5
:105590000EE040238DF82430012308E050EA010397
:1055A00006D030238DF824308DF82520022398462C
:1055B000DDF820C08CF0080C5CEA0B0C0BD150EA33
:1055C000010301D1630706D530238DF824304FF055
:1055D0000108A9F10109582A04D038A20B9208AA9F
:1055E0000A920BE03AA2F9E75B46089AFFF792FDB0
:1055F0000B9B9B5C0A9A521E0A92137050EA01029E
:10560000F2D10A98ADEB000000F1200B600702D543
:1056100024F4803401E04FF00109D94502DDA9EB03
:105620000B0000E0002000EB0B0141440890AAEBC6
:10563000010AE00306D4DDE90F232146504600F0BD
:1056400063F806444FF0000908E009A911F80900C1
:10565000DDE90F12904709F10109761CC145F4DB21
:10566000E0030CD5DDE90F232146504600F04CF84D
:10567000064404E0DDE90F1230209047761C0899BB
:10568000481E08900029F5DC08E00A980A9900787D
:10569000491C0A91DDE90F129047761CBBF100010D
:1056A000ABF1010BF1DC21465046DDE90F2300F0A0
:1056B00019F806446D1C1BE609280100303132330D
:1056C000343536373839616263646566000000003E
:1056D0003031323334353637383941424344454628
:1056E000000000002DE9F041044600251E46174643
:1056F000880404D405E039462020B0476D1C641EA0
:10570000F9D52846BDE8F0812DE9F0410446002591
:105710001E469046C80301D5302700E020278804A4
:1057200004D505E041463846B0476D1C641EF9D5E6
:105730002846BDE8F08100000000000000000000E5
:105740000000000000003F400000000000000000DA
:105750003000400030004000000009000BC03D0058
:105760000BC03D00090018C024407FE0224031807A
:105770000000180024C01B000D803240018003800F
:105780001C4027401C8007400040100060000000C3
:105790000000000000000000000000001F8020400A
:1057A00040200000402020401F8000000000090031
:1057B00006001F80060009000000040004003F806E
:1057C0000400040000000010006000000000000061
:1057D00000000400040004000400040000000000B5
:1057E00000400000000000000000002001C0060092
:1057F0003800400000001F802040204020401F80D3
:105800000000000010403FC000400000000018C031
:1058100021402240244018400000108020402440B5
:1058200024401B80000002000D0011003FC0014019
:1058300000003C80244024402440238000001F803E
:10584000244024403440038000003000200027C062
:105850003800200000001B802440244024401B808E
:1058600000001C0022C0224022401F8000000000D7
:10587000000008400000000000000000000004607C
:10588000000000000000000004000A001100208059
:10589000404009000900090009000900000000005B
:1058A0004040208011000A0004001800200023401E
:1058B0002400180000001F802040274029401F407E
:1058C0000000004007C039000F0001C00040204028
:1058D0003FC0244024401B8000001F802040204007
:1058E00020403080000020403FC0204020401F80EA
:1058F000000020403FC024402E4030C00000204027
:105900003FC024402E00300000000F0010802040D7
:1059100022403380020020403FC0040004003FC00A
:105920002040204020403FC0204020400000006038
:10593000202020203FC02000200020403FC02440E5
:105940000B0030C0204020403FC0204000400040BD
:1059500000C03FC03C0003C03C003FC000002040EE
:105960003FC00C4023003FC020001F80204020404B
:1059700020401F80000020403FC024402400180029
:1059800000001F802140214020E01FA00000204097
:105990003FC02440260019C0004018C024402440C5
:1059A000224031800000300020403FC020403000C5
:1059B000000020003F80004000403F802000200089
:1059C0003E0001C0070038002000380007C03C003E
:1059D00007C038000000204039C0060039C0204010
:1059E00000002000384007C0384020000000304050
:1059F00021C02640384020C00000000000007FE0A9
:105A0000402040200000000070000C000380004097
:105A100000000000402040207FE000000000000067
:105A200020004000200000000000001000100010C6
:105A300000100010001000000000400000000000F6
:105A40000000000002800540054003C00040200027
:105A50003FC0044004400380000000000380044075
:105A600004400640000000000380044024403FC082
:105A70000040000003800540054003400000000096
:105A800004401FC0244024402000000002E00550D4
:105A900005500650042020403FC00440040003C0CD
:105AA00000400000044027C000400000000000103B
:105AB0000010041027E00000000020403FC001401B
:105AC000070004C00440204020403FC00040004088
:105AD000000007C0040007C0040003C00000044029
