:020000040800F2
:10000000B8070020353F00088D0300088F03000863
:1000100093030008970300089B03000800000000FA
:100020000000000000000000000000009F03000826
:10003000A103000800000000A3030008A5030008B6
:100040004F3F00084F3F00084F3F00084F3F000858
:100050004F3F00084F3F00084F3F00084F3F000848
:100060004F3F00084F3F00084F3F00084F3F000838
:100070004F3F00084F3F00084F3F00084F3F000828
:100080004F3F00084F3F00084F3F00084F3F000818
:100090004F3F00084F3F00084F3F00084F3F000808
:1000A0004F3F00084F3F00084F3F00084F3F0008F8
:1000B0004F3F00084F3F00084F3F00084F3F0008E8
:1000C0004F3F00084F3F00084F3F00084F3F0008D8
:1000D0004F3F0008A93E0008C93A00084F3F0008FA
:1000E0004F3F00084F3F00084F3F00084F3F0008B8
:1000F0004F3F00084F3F00084F3F00084F3F0008A8
:100100004F3F00084F3F00084F3F00084F3F000897
:100110004F3F00084F3F00084F3F00084F3F000887
:100120004F3F00084F3F00084F3F00084F3F000877
:1001300000F002F800F03FF80AA090E8000C8244BA
:100140008344AAF10107DA4501D100F034F8AFF297
:10015000090EBAE80F0013F0010F18BFFB1A43F0A5
:1001600001031847FC6D00001C6E0000103A24BF0C
:1001700078C878C1FAD8520724BF30C830C144BF0C
:1001800004680C607047000000230024002500264E
:10019000103A28BF78C1FBD8520728BF30C148BFEA
:1001A0000B607047782905F01380002070471FB559
:1001B0001FBD10B510BD05F05FF91146FFF7F7FF41
:1001C00000F008F805F07DF903B4FFF7F2FF03BC77
:1001D00003F010FE88B04220079081468246834695
:1001E000002400260027002559A103C9CDE90501F7
:1001F00059A103C9CDE9030159A103C9CDE9010101
:10020000A04603F08DFD4FF4A06003F0B3FE4FF461
:10021000E13003F0FDFD00F0B7F900F097FE00F0CB
:10022000D9F94FF4165003F068FC70E0002000F09C
:10023000EBF90790002404E0381905A90855601C63
:10024000C4B2092CF8DB28466A1CD5B203F0FEFCC8
:1002500040F21B2003F0A1FD07A905A803F0D4FC80
:100260009DF81C0000282FD09DF81C000C2801DDF3
:100270000B200790B9F10C0F01DD4FF00B09BAF11B
:100280000C0F01DD4FF00B0ABBF10C0F01DD4FF03D
:100290000B0B00240BE005A8015D33A004F064FF04
:1002A000B8F1000F01D14FF00108601CC4B29DF8F5
:1002B0001C008442EFDB032D03D02DA004F054FF7B
:1002C00002E02CA004F050FF032095FBF0F100FBAE
:1002D0001150C5B2701CC6B2152003F05EFD142E7D
:1002E00015D12548006808B9012000E00020224906
:1002F00008600026781CC7B2B8F1000F07D01F486D
:10030000006808B9012000E000201C4908608DE762
:1003100070B51B48008800F40040C0B11848008840
:10032000C0F30D0500240DE01648015D164804F0E9
:1003300051FE00BF4021144804F0BAFE0128F9D153
:10034000601C84B2AC42EFDB00200D49088070BD18
:10035000010300000002C40B020300010001D5F9F3
:100360000303000200012428253032782000000019
:100370002B2000002D000000948121429401234293
:10038000240000208A00002000380140704700BF90
:10039000FEE700BFFEE700BFFEE700BFFEE77047D5
:1003A00070477047704700000CB500200190009026
:1003B0006C48006840F480306A49086000BF6948B2
:1003C000006800F4003000900198401C01900098F3
:1003D00018B90198B0F5A06FF1D16248006800F437
:1003E000003010B10120009001E000200090009842
:1003F000012843D15C48006840F010005A49086069
:100400000846006820F0030008600846006840F0D5
:1004100002000860534840685249486008464068F6
:1004200048600846406840F480604860084640687C
:1004300020F47C1048600846406840F4E8104860AA
:100440000846006840F08070086000BF45480068BA
:1004500000F000700028F9D04248406820F0030006
:10046000404948600846406840F00200486000BFCC
:100470003C48406800F00C000828F9D10CBD10B5CC
:10048000FFF792FF10BD10B53648006840F001003C
:10049000344908600846406834490840314948609A
:1004A00008460068324908402E490860084600683E
:1004B00020F4802008600846406820F4FE00486070
:1004C0004FF41F008860FFF7DAFF4FF00060294902
:1004D000086010BD10B5002100200022214B5B6890
:1004E00003F00C0121B1042906D0082928D107E026
:1004F000214B224C236027E01F4B204C236023E03C
:10050000184B5B6803F47010164B5B6803F4803281
:10051000022303EB904022B9194B4343174C23604D
:100520000DE0104B5B6803F4003323B1144B4343DD
:10053000124C236003E0104B4343104C236003E054
:100540000D4B0E4C236000BF00BF064B5B68C3F32E
:1005500003130C4CE15C094B1B68CB40074C236038
:1005600010BD000000100240002002400000FFF813
:10057000FFFFF6FE08ED00E000127A000000002008
:1005800000093D000400002008B50121482004F0C6
:1005900081FB2020ADF8000010208DF8030003201F
:1005A0008DF802006946094804F0B8F82021074890
:1005B00004F061F92020ADF800006946044804F019
:1005C000ADF82021024804F056F908BD000C0140A6
:1005D0000018014008B50121442004F05BFB1820FD
:1005E000ADF8000048208DF8030069462C4804F05F
:1005F00095F80120ADF8000028208DF80300694629
:10060000284804F08BF808BD10B5044614B1012049
:10061000254908702448007858B31021204804F078
:1006200010F950B108211E4804F00BF928B101213E
:100630001C4804F006F901281BD10A2003F0ADFB89
:100640000020194908701021154804F0FAF808B97B
:10065000012010BD0821124804F0F3F808B9022067
:10066000F7E701210F4804F0ECF8012815D1032029
:10067000EFE710210A4804F0E4F801280DD1082121
:10068000074804F0DEF8012807D10121054804F0ED
:10069000D8F810B90120044908700020D9E70000FB
:1006A000001801400008014014000020FE490880A5
:1006B0007047FD49891C0880704708B5FA48801CBE
:1006C00000880090BDF8000008BDF74A1080921C19
:1006D0001180704710B504462046FFF7E7FF05205C
:1006E00003F037FBFFF7E9FF10BDF0480089EE4942
:1006F00008807047EC49891C0880704730B5014676
:1007000001F01F04C1F34513CA0AE50205EB4315C6
:100710001544A8B230BD00BF0100A0F10102D0B263
:10072000FAD1704700B502460B46E048808841F692
:100730006311884247D1DD488079A8B9DB48008839
:10074000401E801A82B2D9494889FFF7AFFF0020C6
:10075000FFF7AFFF0020FFF7ACFF1012FFF7A9FF74
:10076000D0B2FFF7A6FF16E0D0494889FFF79EFFF9
:100770001012FFF79EFFD0B2FFF79BFFCB4909880D
:10078000491EC1F30F20FFF794FFC8490978491E9D
:10079000C8B2FFF78EFFC5498889FFF787FF181297
:1007A000FFF787FFD8B2FFF784FFC0494988491E89
:1007B000C1F30F20FFF77DFFBC498978491EC8B2FD
:1007C000FFF777FF3AE0B948808845F21051884238
:1007D00020D1B6494889FFF769FF1012FFF769FF7A
:1007E000B2494989491C88B2FFF760FFD0B2FFF7D0
:1007F00060FFAE498889FFF759FF1812FFF759FFCC
:10080000AA498989491C88B2FFF750FFD8B2FFF77F
:1008100050FF13E0A5494889FFF748FF1012FFF782
:1008200048FFD0B2FFF745FFA0498889FFF73EFF98
:100830001812FFF73EFFD8B2FFF73BFF00BD2DE9CE
:10084000F04105460E4699480088A84203DD9748C6
:100850004088B04202DC0020BDE8F08131462846E5
:10086000FFF760FF9148808845F21051884204D11B
:100870004FF43850FFF71AFF02E02E20FFF716FF63
:10088000FFF71BFF04468948808841F663118842C0
:1008900001D12046E0E7FFF710FF0446FFF70DFF08
:1008A0008046E7B24FF6FF7000EA0727E012C00269
:1008B000B91240EA411040EAE820CDE700B57B4894
:1008C000808845F21051884204D14FF42450FFF73C
:1008D000EDFE02E02920FFF7E9FE00BD00B57348F8
:1008E000808845F21051884204D14FF42050FFF720
:1008F000DDFE02E02820FFF7D9FE00BD70B50446FA
:100900000023002669488079012805D1674880883E
:1009100041F66311884208D164488079F0B9634890
:10092000808841F66311884218D1082C15D2DFE87F
:1009300004F00406080A0C0E101206240DE0072429
:100940000BE0042409E0052407E0012405E000246D
:1009500003E0032401E0022400BF00BF082C1CD2E6
:10096000DFE804F00406090C0F12151800BF14E0AC
:1009700043F0800311E043F040030EE043F0C00376
:100980000BE043F0200308E043F0600305E043F090
:10099000A00302E043F0E00300BF00BF43488088AB
:1009A00045F21051884202D14FF4585600E03626E5
:1009B0003E48808849F24131884205D03B488088D2
:1009C00047F28971884201D143F008031946304645
:1009D000FFF77BFE3548808841F6631188421DD0C1
:1009E00003F0200068B131480088304949888842C6
:1009F00014DA2E48058840882C490880084645802E
:100A00000CE02A48008829494988884206DD2748A1
:100A10000588408825490880084645802348808805
:100A200045F21051884257D120494889FFF73EFED0
:100A30000020FFF73EFE1D494989491C88B2FFF797
:100A400035FE0020FFF735FE18494989891C88B218
:100A5000FFF72CFE15490988491EC1F30F20FFF747
:100A600028FE12494989C91C88B2FFF71FFE0F49A9
:100A70000978491EC8B2FFF71CFE0C498889FFF7A8
:100A800015FE0020FFF715FE08498989491C88B228
:100A9000FFF70CFE0020FFF70CFE04498989891C32
:100AA00088B2FFF703FE03E0FE07006C3C00002065
:100AB000FE494988491EC1F30F20FFF7FAFDFB49A3
:100AC0008989C91C88B2FFF7F1FDF8498978491E68
:100AD000C8B2FFF7EEFD2DE0F4494889FFF7E6FDC7
:100AE0000020FFF7E6FD0020FFF7E3FDEF4909884E
:100AF000491EC1F30F20FFF7DCFDEC490978491EC0
:100B0000C8B2FFF7D6FDE9498889FFF7CFFD00207D
:100B1000FFF7CFFD0020FFF7CCFDE4494988491ECF
:100B2000C1F30F20FFF7C5FDE0498978491EC8B21F
:100B3000FFF7BFFD70BD30B504460D46294620467F
:100B4000FFF7F0FDFFF7D1FDD9480088D9490880AB
:100B500030BD10B503460C46D448808845F210518C
:100B6000884220D1D1494889FFF7A0FD1812FFF72C
:100B7000A0FDCE494989491C88B2FFF797FDD8B23C
:100B8000FFF797FDC9498889FFF790FD2012FFF70D
:100B900090FDC6498989491C88B2FFF787FDE0B2FC
:100BA000FFF787FD42E0C148808841F66311884223
:100BB00028D1BE48807920B9BC480088401EC01AA0
:100BC00083B2BA494889FFF771FD1812FFF771FD2A
:100BD000D8B2FFF76EFD1812FFF76BFDD8B2FFF722
:100BE00068FDB2498889FFF761FD2012FFF761FDBA
:100BF000E0B2FFF75EFD2012FFF75BFDE0B2FFF70A
:100C000058FD13E0A9494889FFF750FD1812FFF776
:100C100050FDD8B2FFF74DFDA4498889FFF746FD86
:100C20002012FFF746FDE0B2FFF743FD9F48008921
:100C3000A049891E0880881C028010BD2DE9F0475C
:100C40000446BE20FFF732FD0520FFF732FD2046A7
:100C500004F077FC07464FF06632974B04F084FCB3
:100C6000054604F041FC1FFA80F94846FFF721FDD4
:100C70000120FFF71EFDFF20FFF71BFD0020FFF7FF
:100C800018FD0020FFF715FDBDE8F08710B50446FC
:100C900086488471002C45D1F020844908804FF4A7
:100CA000A07048800846808845F21051884210D1D3
:100CB0004FF430507D4908814FF4285048814FF45B
:100CC0002C5088814FF4F07008804FF448704880B1
:100CD0001AE07648808841F6631188420DD12C20B5
:100CE000724908812B2048812A2088814FF4F070B6
:100CF00008804FF44870488006E02C206B4908813A
:100D00002A2048812B2088816848808845F210314C
:100D100088424CD14FF4A070644908804FF4F070C1
:100D2000488044E04FF4A07060490880F02048807B
:100D30000846808845F21051884210D14FF4305057
:100D40005A4908814FF4285048814FF42C5088812B
:100D50004FF4487008804FF4F07048801AE0534810
:100D6000808841F6631188420DD12C204F490881BB
:100D70002A2048812B2088814FF4487008804FF446
:100D8000F070488006E02C20484908812A204881DC
:100D90002B2088814548808845F21031884206D151
:100DA0004FF4F070414908804FF4A0704880002053
:100DB000FFF7A4FD10BDF0B504460D46A018401E77
:100DC00086B2E818401E87B23848808841F6631121
:100DD000884231D13548807901282DD033480088A8
:100DE000801A001B84B2E818401E83B22F4948893C
:100DF000FFF75CFC2012FFF75CFCE0B2FFF759FC48
:100E0000A118491EC1F30F20FFF753FCA118491E7A
:100E1000C8B2FFF74EFC25498889FFF747FC281226
:100E2000FFF747FCE8B2FFF744FC1812FFF741FC5C
:100E3000D8B2FFF73EFC73E01C48808845F21051A1
:100E400088424DD119494889FFF730FC2012FFF73D
:100E500030FC16494989491C88B2FFF727FCE0B2EB
:100E6000FFF727FC11494989891C88B2FFF71EFC4E
:100E70003012FFF71EFC0D494989C91C88B2FFF7E3
:100E800015FCF0B2FFF715FC08498889FFF70EFC46
:100E90002812FFF70EFC05498989491C88B2FFF723
:100EA00005FCE8B2FFF705FC004907E03C00002024
:100EB000160000200008006C666604408989891CC1
:100EC00088B2FFF7F3FB3812FFF7F3FBFE4989897D
:100ED000C91C88B2FFF7EAFBF8B2FFF7EAFB1FE094
:100EE000F9494889FFF7E2FB2012FFF7E2FBE0B285
:100EF000FFF7DFFB3012FFF7DCFBF0B2FFF7D9FBA7
:100F0000F1498889FFF7D2FB2812FFF7D2FBE8B23C
:100F1000FFF7CFFB3812FFF7CCFBF8B2FFF7C9FBA6
:100F2000F0BD70B504460026E74805884088454373
:100F300000210846FFF7F6FBFFF7D7FB00BF02E0F2
:100F4000E2480480761CAE42FAD370BD00B59FB073
:100F50000121080203F091FE01214FF4B47003F067
:100F600099FE0120ADF8780010208DF87B00032059
:100F70008DF87A001EA9D64803F0D0FB4CF23370EE
:100F8000ADF8780018208DF87B0003208DF87A00EA
:100F90001EA9D04803F0C2FB4FF68070ADF8780070
:100FA00018208DF87B0003208DF87A001EA9CA480E
:100FB00003F0B4FB41F20100ADF8780018208DF881
:100FC0007B0003208DF87A001EA9C44803F0A6FB1D
:100FD00001200890002009900F200A9000200B901B
:100FE0000C900D900E900190029003200390002031
:100FF000049005900690079006200F900020109016
:1010000011901020129000201390159014901690BB
:1010100017904FF480501890002019904FF48040A2
:101020001A9000201B9008A81C9001A81D900FA8E2
:1010300003F05AF80121062003F0BEF9322002F035
:10104000ACFED320FFF732FBFFF737FB9E498880C9
:10105000FFF733FB9C498880FFF72FFB9A49888074
:10106000084680884FF6FF7101EA00209649888083
:10107000FFF723FB944989880843934988800846F1
:10108000808849F2413188427ED00420FFF70EFB70
:10109000FFF713FB8C498880FFF70FFB8A49888094
:1010A000FFF70BFB88498880084680884FF6FF7160
:1010B00001EA002084498880FFF7FFFA8249898885
:1010C0000843814988800846808848F25251884206
:1010D00003D147F289707C4988807B48808847F239
:1010E000897188427AD0D420FFF7E0FAFFF7E5FA59
:1010F00075498880FFF7E1FA73498880FFF7DDFAC8
:1011000071498880084680884FF6FF7101EA002007
:101110006D498880FFF7D1FA6B49898808436A498D
:1011200088800846808845F21031884256D04FF4B6
:101130005A40FFF7BBFAFFF7C0FA634988804FF4C3
:101140005B40FFF7B3FAFFF7B8FA5F4988800846BB
:1011500080884FF6FF7101EA00205B4988804FF4D8
:101160005C40FFF7A3FAFFF7A8FA574989880843BC
:101170005549888008468088B0F5004F02D145F275
:1011800010508880504800E028E0808845F21051D7
:10119000884223D0A120FFF789FAFFF78EFA4A4947
:1011A0008880FFF78AFA48498880084680884FF689
:1011B000FF7101EA002044498880FFF77EFA424926
:1011C00089880843404988800846808845F26171D3
:1011D000884203D141F663103B4988803A488088B1
:1011E00049F2413188427BD1CF20FFF75FFA0020DE
:1011F000FFF75FFAC120FFF75CFA3020FFF759FADA
:10120000ED20FFF753FA6420FFF753FA0320FFF7AE
:1012100050FA1220FFF74DFA8120FFF74AFAE82032
:10122000FFF744FA8520FFF744FA1020FFF741FA50
:101230007A20FFF73EFACB20FFF738FA3920FFF784
:1012400038FA2C20FFF735FA0020FFF732FA342065
:10125000FFF72FFA0220FFF72CFAF720FFF726FA04
:101260002020FFF726FAEA20FFF720FA0020FFF7F8
:1012700020FA0020FFF71DFAC020FFF717FA1B2005
:10128000FFF717FAC120FFF711FA0120FFF711FA53
:10129000C520FFF70BFA3020FFF70BFA3020FFF7DD
:1012A00008FAC720FFF702FAB720FFF702FA362044
:1012B000FFF7FCF94820FFF7FCF93A20FFF7F6F9B1
:1012C0005520FFF7F6F90CE03C0000200008006C08
:1012D000000C0140001401400018014000200140B2
:1012E000A6E0B120FFF7E2F90020FFF7E2F91A20AB
:1012F000FFF7DFF9B620FFF7D9F90A20FFF7D9F990
:10130000A220FFF7D6F9F220FFF7D0F90020FFF76F
:10131000D0F92620FFF7CAF90120FFF7CAF9E0202B
:10132000FFF7C4F90F20FFF7C4F92A20FFF7C1F92E
:101330002820FFF7BEF90820FFF7BBF90E20FFF7C2
:10134000B8F90820FFF7B5F95420FFF7B2F9A92042
:10135000FFF7AFF94320FFF7ACF90A20FFF7A9F92F
:101360000F20FFF7A6F90020FFF7A3F90020FFF7F1
:10137000A0F90020FFF79DF90020FFF79AF9E1207E
:10138000FFF794F90020FFF794F91520FFF791F982
:101390001720FFF78EF90720FFF78BF91120FFF7D1
:1013A00088F90620FFF785F92B20FFF782F95620F0
:1013B000FFF77FF93C20FFF77CF90520FFF779F96B
:1013C0001020FFF776F90F20FFF773F93F20FFF7A2
:1013D00070F93F20FFF76DF90F20FFF76AF92B2016
:1013E000FFF764F90020FFF764F90020FFF761F9C7
:1013F0000120FFF75EF93F20FFF75BF92A20FFF796
:1014000055F90020FFF755F90020FFF752F90020A9
:10141000FFF74FF9EF20FFF74CF91120FFF746F9DE
:10142000782002F0BAFC2920FFF740F902F0A6B8B4
:10143000FE48808847F2897188427CD11120FFF7ED
:1014400035F9782002F0A9FC3620FFF72FF90020AB
:10145000FFF72FF93A20FFF729F90520FFF729F9BF
:10146000B220FFF723F90C20FFF723F90C20FFF738
:1014700020F90020FFF71DF93320FFF71AF9332078
:10148000FFF717F9B720FFF711F93520FFF711F92A
:10149000BB20FFF70BF93220FFF70BF9C020FFF755
:1014A00005F90C20FFF705F9C220FFF7FFF801202E
:1014B000FFF7FFF8C320FFF7F9F81020FFF7F9F85E
:1014C000C420FFF7F3F82020FFF7F3F8C620FFF75A
:1014D000EDF80F20FFF7EDF8D020FFF7E7F8A42094
:1014E000FFF7E7F8A120FFF7E4F8E020FFF7DEF8C8
:1014F000D020FFF7DEF80020FFF7DBF80220FFF72F
:10150000D8F80720FFF7D5F80A20FFF7D2F82820EF
:10151000FFF7CFF83220FFF7CCF84420FFF7C9F8E7
:101520004220FFF7C6F80620FFF7C3F80E20FFF7AA
:10153000C0F8122000E056E0FFF7BBF81420FFF7D8
:10154000B8F81720FFF7B5F8E120FFF7AFF8D02083
:10155000FFF7AFF80020FFF7ACF80220FFF7A9F87B
:101560000720FFF7A6F80A20FFF7A3F82820FFF7C7
:10157000A0F83120FFF79DF85420FFF79AF8472094
:10158000FFF797F80E20FFF794F81C20FFF791F86B
:101590001720FFF78EF81B20FFF78BF81E20FFF7B0
:1015A00088F82A20FFF782F80020FFF782F8002051
:1015B000FFF77FF80020FFF77CF8EF20FFF779F8BE
:1015C0002B20FFF773F80020FFF773F80020FFF7D8
:1015D00070F80120FFF76DF83F20FFF76AF8292027
:1015E000FFF764F822E79148808845F2103188427D
:1015F00040F07C87ED20FFF759F80120FFF759F8FC
:10160000FE20FFF756F8EE20FFF750F8DE20FFF738
:1016100050F82120FFF74DF8F120FFF747F801209F
:10162000FFF747F8DF20FFF741F81020FFF741F8F8
:10163000C420FFF73BF88F20FFF73BF8C620FFF7E9
:1016400035F80020FFF735F8E220FFF732F8E22006
:10165000FFF72FF8E220FFF72CF8BF20FFF726F85E
:10166000AA20FFF726F8B020FFF720F80D20FFF79B
:1016700020F80020FFF71DF80D20FFF71AF80020D2
:10168000FFF717F81120FFF714F80020FFF711F803
:101690001920FFF70EF80020FFF70BF82120FFF7C5
:1016A00008F80020FFF705F82D20FFF702F80020CA
:1016B000FEF7FFFF3D20FEF7FCFF0020FEF7F9FFDD
:1016C0005D20FEF7F6FF0020FEF7F3FF5D20FEF73A
:1016D000F0FF0020FEF7EDFFB120FEF7E7FF8020CE
:1016E000FEF7E7FF0020FEF7E4FF8B20FEF7E1FFA7
:1016F0000020FEF7DEFF9620FEF7DBFF0020FEF75E
:10170000D8FFB220FEF7D2FF0020FEF7D2FF002064
:10171000FEF7CFFF0220FEF7CCFF0020FEF7C9FF47
:101720000320FEF7C6FF0020FEF7C3FFB320FEF73D
:10173000BDFF0020FEF7BDFF0020FEF7BAFF00202E
:10174000FEF7B7FF0020FEF7B4FF0020FEF7B1FF61
:101750000020FEF7AEFF0020FEF7ABFF0020FEF7F3
:10176000A8FF0020FEF7A5FF0020FEF7A2FF002043
:10177000FEF79FFF0020FEF79CFF0020FEF799FF79
:101780000020FEF796FF0020FEF793FF0020FEF7F3
:1017900090FF0020FEF78DFF0020FEF78AFF00205B
:1017A000FEF787FF0020FEF784FF0020FEF781FF91
:1017B0000020FEF77EFF0020FEF77BFF0020FEF7F3
:1017C00078FFB420FEF772FF8B20FEF772FF002037
:1017D000FEF76FFF9620FEF76CFF0020FEF769FF13
:1017E000A120FEF766FF0020FEF763FFB520FEF79D
:1017F0005DFF0220FEF75DFF0020FEF75AFF032089
:10180000FEF757FF0020FEF754FF0420FEF751FFBC
:101810000020FEF74EFFB620FEF748FF0020FEF73F
:1018200048FF0020FEF745FFB72001E03C00002004
:10183000FEF73CFF0020FEF73CFF0020FEF739FFDB
:101840003F20FEF736FF0020FEF733FF5E20FEF755
:1018500030FF0020FEF72DFF6420FEF72AFF002056
:10186000FEF727FF8C20FEF724FF0020FEF721FF64
:10187000AC20FEF71EFF0020FEF71BFFDC20FEF76A
:1018800018FF0020FEF715FF7020FEF712FF002062
:10189000FEF70FFF9020FEF70CFF0020FEF709FF78
:1018A000EB20FEF706FF0020FEF703FFDC20FEF72B
:1018B00000FF0020FEF7FDFEB820FEF7F7FE002037
:1018C000FEF7F7FE0020FEF7F4FE0020FEF7F1FE23
:1018D0000020FEF7EEFE0020FEF7EBFE0020FEF7F4
:1018E000E8FE0020FEF7E5FE0020FEF7E2FEBA204B
:1018F000FEF7DCFE2420FEF7DCFE0020FEF7D9FE1A
:101900000020FEF7D6FE0020FEF7D3FEC120FEF732
:10191000CDFE2020FEF7CDFE0020FEF7CAFE5420AB
:10192000FEF7C7FE0020FEF7C4FEFF20FEF7C1FE53
:101930000020FEF7BEFEC220FEF7B8FE0A20FEF72A
:10194000B8FE0020FEF7B5FE0420FEF7B2FE002030
:10195000FEF7AFFEC320FEF7A9FE3C20FEF7A9FE6E
:101960000020FEF7A6FE3A20FEF7A3FE0020FEF7B9
:10197000A0FE3920FEF79DFE0020FEF79AFE3720DC
:10198000FEF797FE0020FEF794FE3C20FEF791FE46
:101990000020FEF78EFE3620FEF78BFE0020FEF7BD
:1019A00088FE3220FEF785FE0020FEF782FE2F2003
:1019B000FEF77FFE0020FEF77CFE2C20FEF779FE6E
:1019C0000020FEF776FE2920FEF773FE0020FEF7CA
:1019D00070FE2620FEF76DFE0020FEF76AFE242032
:1019E000FEF767FE0020FEF764FE2420FEF761FE8E
:1019F0000020FEF75EFE2320FEF75BFE0020FEF7D0
:101A000058FE3C20FEF755FE0020FEF752FE362021
:101A1000FEF74FFE0020FEF74CFE3220FEF749FE97
:101A20000020FEF746FE2F20FEF743FE0020FEF7C3
:101A300040FE2C20FEF73DFE0020FEF73AFE292056
:101A4000FEF737FE0020FEF734FE2620FEF731FEBB
:101A50000020FEF72EFE2420FEF72BFE0020FEF7CE
:101A600028FE2420FEF725FE0020FEF722FE23207C
:101A7000FEF71FFE0020FEF71CFEC420FEF716FE38
:101A80006220FEF716FE0020FEF713FE0520FEF78B
:101A900010FE0020FEF70DFE8420FEF70AFE002057
:101AA000FEF707FEF020FEF704FE0020FEF701FE21
:101AB0001820FEF7FEFD0020FEF7FBFDA420FEF738
:101AC000F8FD0020FEF7F5FD1820FEF7F2FD0020DE
:101AD000FEF7EFFD5020FEF7ECFD0020FEF7E9FDDC
:101AE0000C20FEF7E6FD0020FEF7E3FD1720FEF7D1
:101AF000E0FD0020FEF7DDFD9520FEF7DAFD002079
:101B0000FEF7D7FDF320FEF7D4FD0020FEF7D1FD50
:101B1000E620FEF7CEFD0020FEF7CBFDC520FEF748
:101B2000C5FD3220FEF7C5FD0020FEF7C2FD4420B2
:101B3000FEF7BFFD0020FEF7BCFD6520FEF7B9FDF6
:101B40000020FEF7B6FD7620FEF7B3FD0020FEF77D
:101B5000B0FD8820FEF7ADFD0020FEF7AAFDC620EF
:101B6000FEF7A4FD2020FEF7A4FD0020FEF7A1FD56
:101B70001720FEF79EFD0020FEF79BFD0120FEF7DB
:101B800098FD0020FEF795FDC720FEF78FFD002091
:101B9000FEF78FFD0020FEF78CFD0020FEF789FD8B
:101BA0000020FEF786FDC820FEF780FD0020FEF72E
:101BB00080FD0020FEF77DFD0020FEF77AFD00206D
:101BC000FEF777FDC920FEF771FD0020FEF771FDDD
:101BD0000020FEF76EFD0020FEF76BFD0020FEF7F3
:101BE00068FD0020FEF765FD0020FEF762FD002085
:101BF000FEF75FFD0020FEF75CFD0020FEF759FDBB
:101C00000020FEF756FD0020FEF753FD0020FEF7F2
:101C100050FD0020FEF74DFD0020FEF74AFD00209C
:101C2000FEF747FD0020FEF744FDE020FEF73EFDF5
:101C30001620FEF73EFD0020FEF73BFD1C20FEF7C0
:101C400038FD0020FEF735FD2120FEF732FD002093
:101C5000FEF72FFD3620FEF72CFD0020FEF729FDB4
:101C60004620FEF726FD0020FEF723FD5220FEF75A
:101C700020FD0020FEF71DFD6420FEF71AFD002068
:101C8000FEF717FD7A20FEF714FD0020FEF711FD88
:101C90008B20FEF70EFD0020FEF70BFD9920FEF7CE
:101CA00008FD0020FEF705FDA820FEF702FD00203C
:101CB000FEF7FFFCB920FEF7FCFC0020FEF7F9FC64
:101CC000C420FEF7F6FC0020FEF7F3FCCA20FEF766
:101CD000F0FC0020FEF7EDFCD220FEF7EAFC00202D
:101CE000FEF7E7FCD920FEF7E4FC0020FEF7E1FC5C
:101CF000E020FEF7DEFC0020FEF7DBFCF320FEF721
:101D0000D8FC0020FEF7D5FCE120FEF7CFFC162022
:101D1000FEF7CFFC0020FEF7CCFC1C20FEF7C9FC30
:101D20000020FEF7C6FC2220FEF7C3FC0020FEF7D1
:101D3000C0FC3620FEF7BDFC0020FEF7BAFC4520B3
:101D4000FEF7B7FC0020FEF7B4FC5220FEF7B1FC12
:101D50000020FEF7AEFC6420FEF7ABFC0020FEF78F
:101D6000A8FC7A20FEF7A5FC0020FEF7A2FC8B2041
:101D7000FEF79FFC0020FEF79CFC9920FEF799FCE3
:101D80000020FEF796FCA820FEF793FC0020FEF74B
:101D900090FCB920FEF78DFC0020FEF78AFCC420E1
:101DA000FEF787FC0020FEF784FCCA20FEF781FCCA
:101DB0000020FEF77EFCD220FEF77BFC0020FEF721
:101DC00078FCD820FEF775FC0020FEF772FCE020BE
:101DD000FEF76FFC0020FEF76CFCF320FEF769FCB9
:101DE0000020FEF766FCE220FEF760FC0520FEF70F
:101DF00060FC0020FEF75DFC0B20FEF75AFC002083
:101E0000FEF757FC1B20FEF754FC0020FEF751FCA8
:101E10003420FEF74EFC0020FEF74BFC4420FEF77A
:101E200048FC0020FEF745FC4F20FEF742FC002056
:101E3000FEF73FFC6120FEF73CFC0020FEF739FC7A
:101E40007920FEF736FC0020FEF733FC8820FEF7F1
:101E500030FC0020FEF72DFC9720FEF72AFC002026
:101E6000FEF727FCA620FEF724FC0020FEF721FC4D
:101E7000B720FEF71EFC0020FEF71BFCC220FEF779
:101E800018FC0020FEF715FCC720FEF712FC00200E
:101E9000FEF70FFCD120FEF70CFC0020FEF709FC3A
:101EA000D620FEF706FC0020FEF703FCDD20FEF73F
:101EB00000FC0020FEF7FDFBF320FEF7FAFB0020FC
:101EC000FEF7F7FBE320FEF7F1FB0520FEF7F1FB41
:101ED0000020FEF7EEFB0A20FEF7EBFB0020FEF7EA
:101EE000E8FB1C20FEF7E5FB0020FEF7E2FB3320B9
:101EF000FEF7DFFB0020FEF7DCFB4420FEF7D9FBFA
:101F00000020FEF7D6FB5020FEF7D3FB0020FEF7A3
:101F1000D0FB6220FEF7CDFB0020FEF7CAFB782045
:101F2000FEF7C7FB0020FEF7C4FB8820FEF7C1FBCD
:101F30000020FEF7BEFB9720FEF7BBFB0020FEF75C
:101F4000B8FBA620FEF7B5FB0020FEF7B2FBB720DA
:101F5000FEF7AFFB0020FEF7ACFBC220FEF7A9FBAB
:101F60000020FEF7A6FBC720FEF7A3FB0020FEF72C
:101F7000A0FBD120FEF79DFB0020FEF79AFBD520A9
:101F8000FEF797FB0020FEF794FBDD20FEF791FBA8
:101F90000020FEF78EFBF320FEF78BFB0020FEF700
:101FA00088FBE420FEF782FB0120FEF782FB002085
:101FB000FEF77FFB0120FEF77CFB0020FEF779FB9C
:101FC0000220FEF776FB0020FEF773FB2A20FEF7C7
:101FD00070FB0020FEF76DFB3C20FEF76AFB002043
:101FE000FEF767FB4B20FEF764FB0020FEF761FB6A
:101FF0005D20FEF75EFB0020FEF75BFB7420FEF722
:1020000058FB0020FEF755FB8420FEF752FB002012
:10201000FEF74FFB9320FEF74CFB0020FEF749FB39
:10202000A220FEF746FB0020FEF743FBB320FEF79D
:1020300040FB0020FEF73DFBBE20FEF73AFB0020F0
:10204000FEF737FBC420FEF734FB0020FEF731FB20
:10205000CD20FEF72EFB0020FEF72BFBD320FEF752
:1020600028FB0020FEF725FBDD20FEF722FB0020E9
:10207000FEF71FFBF320FEF71CFB0020FEF719FB09
:10208000E520FEF713FB0020FEF713FB0020FEF710
:1020900010FB0020FEF70DFB0020FEF70AFB0220DC
:1020A000FEF707FB0020FEF704FB2920FEF701FBEB
:1020B0000020FEF7FEFA3C20FEF7FBFA0020FEF7B8
:1020C000F8FA4B20FEF7F5FA0020FEF7F2FA5D2051
:1020D000FEF7EFFA0020FEF7ECFA7420FEF7E9FABB
:1020E0000020FEF7E6FA8420FEF7E3FA0020FEF770
:1020F000E0FA9320FEF7DDFA0020FEF7DAFAA220DC
:10210000FEF7D7FA0020FEF7D4FAB320FEF7D1FA93
:102110000020FEF7CEFABE20FEF7CBFA0020FEF735
:10212000C8FAC420FEF7C5FA0020FEF7C2FACD2097
:10213000FEF7BFFA0020FEF7BCFAD320FEF7B9FA8B
:102140000020FEF7B6FADC20FEF7B3FA0020FEF717
:10215000B0FAF320FEF7ADFA0020FEF7AAFAE62067
:10216000FEF7A4FA1120FEF7A4FA0020FEF7A1FA68
:102170003420FEF79EFA0020FEF79BFA5620FEF769
:1021800098FA0020FEF795FA7620FEF792FA0020E2
:10219000FEF78FFA7720FEF78CFA0020FEF789FA17
:1021A0006620FEF786FA0020FEF783FA8820FEF705
:1021B00080FA0020FEF77DFA9920FEF77AFA0020D7
:1021C000FEF777FABB20FEF774FA0020FEF771FAEB
:1021D0009920FEF76EFA0020FEF76BFA6620FEF7F4
:1021E00068FA0020FEF765FA5520FEF762FA002033
:1021F000FEF75FFA5520FEF75CFA0020FEF759FA69
:102200004520FEF756FA0020FEF753FA4320FEF76A
:1022100050FA0020FEF74DFA4420FEF74AFA00205B
:10222000FEF747FAE720FEF741FA3220FEF741FABF
:102230000020FEF73EFA5520FEF73BFA0020FEF79D
:1022400038FA7620FEF735FA0020FEF732FA6620DB
:10225000FEF72FFA0020FEF72CFA6720FEF729FA86
:102260000020FEF726FA6720FEF723FA0020FEF78B
:1022700020FA8720FEF71DFA0020FEF71AFA9920AF
:10228000FEF717FA0020FEF714FABB20FEF711FA4A
:102290000020FEF70EFA9920FEF70BFA0020FEF759
:1022A00008FA7720FEF705FA0020FEF702FA44202C
:1022B000FEF7FFF90020FEF7FCF95620FEF7F9F9CA
:1022C0000020FEF7F6F92320FEF7F3F90020FEF7D1
:1022D000F0F93320FEF7EDF90020FEF7EAF945208A
:1022E000FEF7E7F90020FEF7E4F9E820FEF7DEF953
:1022F0000020FEF7DEF90020FEF7DBF99920FEF75B
:10230000D8F90020FEF7D5F98720FEF7D2F9002092
:10231000FEF7CFF98820FEF7CCF90020FEF7C9F9C7
:102320007720FEF7C6F90020FEF7C3F96620FEF716
:10233000C0F90020FEF7BDF98820FEF7BAF90020A9
:10234000FEF7B7F9AA20FEF7B4F90020FEF7B1F9BD
:10235000BB20FEF7AEF90020FEF7ABF99920FEF79F
:10236000A8F90020FEF7A5F96620FEF7A2F90020E3
:10237000FEF79FF95520FEF79CF90020FEF799F92A
:102380005520FEF796F90020FEF793F94420FEF75A
:1023900090F90020FEF78DF94420FEF78AF900201D
:1023A000FEF787F95520FEF784F90020FEF781F942
:1023B000E920FEF77BF9AA20FEF77BF90020FEF763
:1023C00078F90020FEF775F90020FEF772F9002079
:1023D000FEF76CF9AA20FEF76CF9CF20FEF766F93C
:1023E0000020FEF766F90020FEF763F90020FEF7F3
:1023F00060F90020FEF75DF90020FEF75AF9002091
:10240000FEF757F90020FEF754F90020FEF751F9C6
:102410000020FEF74EF90020FEF74BF90020FEF7F2
:1024200048F90020FEF745F90020FEF742F90020A8
:10243000FEF73FF90020FEF73CF90020FEF739F9DE
:102440000020FEF736F9F020FEF730F90020FEF705
:1024500030F95020FEF72DF90020FEF72AF9002070
:10246000FEF727F90020FEF724F9F320FEF71EF906
:102470000020FEF71EF9F920FEF718F90620FEF7F6
:1024800018F91020FEF715F92920FEF712F900209F
:10249000FEF70FF93A20FEF709F95520FEF709F982
:1024A0001120FEF703F9642001F077FC2920FEF7E4
:1024B000FDF83520FEF7FAF80020FEF7FAF8512073
:1024C000FEF7F4F8FF20FEF7F4F85320FEF7EEF8DD
:1024D0002C20FEF7EEF85520FEF7E8F88220FEF7F4
:1024E000E8F82C20FEF7E2F801F048B8FE488088B2
:1024F00045F2105188427DD155214FF47040FEF7CE
:10250000E4F8AA214FF20100FEF7DFF852214FF262
:102510000200FEF7DAF808214FF20300FEF7D5F8C3
:1025200001214FF20400FEF7D0F80D214FF43040A6
:10253000FEF7CBF80D214BF20100FEF7C6F80D2196
:102540004BF20200FEF7C1F834214FF43640FEF79B
:10255000BCF834214BF20160FEF7B7F834214BF29E
:102560000260FEF7B2F80D214FF43140FEF7ADF8EE
:102570000D214BF20110FEF7A8F80D214BF20210CD
:10258000FEF7A3F834214FF43740FEF79EF83421CC
:102590004BF20170FEF799F834214BF20270FEF70E
:1025A00094F800214FF43240FEF78FF800214BF2EF
:1025B0000120FEF78AF800214BF20220FEF785F891
:1025C00024214FF43840FEF780F824214BF6010017
:1025D000FEF77BF824214BF60200FEF776F8012186
:1025E0004FF43F40FEF771F80F214FF43340FEF7F0
:1025F0006CF800E0FDE30F214BF20130FEF765F8C7
:102600000F214BF20230FEF760F834214FF43940CD
:10261000FEF75BF834214BF60110FEF756F8342133
:102620004BF60210FEF751F808214FF43540FEF743
:102630004CF808214BF20150FEF747F808214BF205
:102640000250FEF742F803214FF44240FEF73DF8F6
:1026500024214FF43A40FEF738F824214BF60120AC
:10266000FEF733F824214BF60220FEF72EF8002166
:102670004FF43C40FEF729F878214BF60140FEF775
:1026800024F800214BF60240FEF71FF800214FF41A
:102690003D40FEF71AF878214BF60150FEF715F889
:1026A00000214BF60250FEF710F800214FF43E4097
:1026B000FEF70BF864214BF60160FEF706F80021E7
:1026C0004FF45140FEF701F833214DF20110FDF7B0
:1026D000FCFF00214DF20210FDF7F7FF34214DF20F
:1026E0000310FDF7F2FF00214DF20410FDF7EDFF9E
:1026F0003A214DF20510FDF7E8FF00214DF20610DA
:10270000FDF7E3FF4A214DF20710FDF7DEFF002140
:102710004DF20810FDF7D9FF5C214DF20910FDF7CD
:10272000D4FF00214DF20A10FDF7CFFF81214DF2B9
:102730000B10FDF7CAFF00214DF20C10FDF7C5FF8D
:10274000A6214DF20D10FDF7C0FF00214DF20E1035
:10275000FDF7BBFFE5214DF20F10FDF7B6FF01219C
:102760004DF21010FDF7B1FF13214DF21110FDF7DE
:10277000ACFF01214DF21210FDF7A7FF54214DF2DD
:102780001310FDF7A2FF01214DF21410FDF79DFF7C
:1027900082214DF21510FDF798FF01214DF2161020
:1027A000FDF793FFCA214DF21710FDF78EFF0221AE
:1027B0004DF21810FDF789FF00214DF21910FDF7B9
:1027C00084FF02214DF21A10FDF77FFF01214DF227
:1027D0001B10FDF77AFF02214DF21C10FDF775FF6B
:1027E00034214DF21D10FDF770FF02214DF21E1035
:1027F000FDF76BFF67214DF21F10FDF766FF022109
:102800004DF22010FDF761FF84214DF22110FDF7FC
:102810005CFF02214DF22210FDF757FFA4214DF27B
:102820002310FDF752FF02214DF22410FDF74DFF5A
:10283000B7214DF22510FDF748FF02214DF2261079
:10284000FDF743FFCF214DF22710FDF73EFF022198
:102850004DF22810FDF739FFDE214DF22910FDF76A
:1028600034FF02214DF22A10FDF72FFFF2214DF225
:102870002B10FDF72AFF02214DF22C10FDF725FF4A
:10288000FE214DF22D10FDF720FF03214DF22E10F9
:10289000FDF71BFF10214DF22F10FDF716FF03214E
:1028A0004DF23010FDF711FF33214DF23110FDF7DD
:1028B0000CFF03214DF23210FDF707FF6D214DF2A1
:1028C0003310FDF702FF00214FF45240FDF7FDFEEB
:1028D00033214DF20120FDF7F8FE00214DF20220D8
:1028E000FDF7F3FE342101E03C0000204DF203200F
:1028F000FDF7EBFE00214DF20420FDF7E6FE3A2144
:102900004DF20520FDF7E1FE00214DF20620FDF716
:10291000DCFE4A214DF20720FDF7D7FE00214DF2E3
:102920000820FDF7D2FE5C214DF20920FDF7CDFE17
:1029300000214DF20A20FDF7C8FE81214DF20B2047
:10294000FDF7C3FE00214DF20C20FDF7BEFEA621CF
:102950004DF20D20FDF7B9FE00214DF20E20FDF7DE
:10296000B4FEE5214DF20F20FDF7AFFE01214DF23F
:102970001020FDF7AAFE13214DF21120FDF7A5FE50
:1029800001214DF21220FDF7A0FE54214DF213203B
:10299000FDF79BFE01214DF21420FDF796FE8221EA
:1029A0004DF21520FDF791FE01214DF21620FDF7A5
:1029B0008CFECA214DF21720FDF787FE02214DF251
:1029C0001820FDF782FE00214DF21920FDF77DFE53
:1029D00002214DF21A20FDF778FE01214DF21B2055
:1029E000FDF773FE02214DF21C20FDF76EFE34212F
:1029F0004DF21D20FDF769FE02214DF21E20FDF76C
:102A000064FE67214DF21F20FDF75FFE02214DF2AB
:102A10002020FDF75AFE84214DF22120FDF755FEBE
:102A200002214DF22220FDF750FEA4214DF2232079
:102A3000FDF74BFE02214DF22420FDF746FEB721A3
:102A40004DF22520FDF741FE02214DF22620FDF733
:102A50003CFECF214DF22720FDF737FE02214DF23B
:102A60002820FDF732FEDE214DF22920FDF72DFE54
:102A700002214DF22A20FDF728FEF2214DF22B20F3
:102A8000FDF723FE02214DF22C20FDF71EFEFE2154
:102A90004DF22D20FDF719FE03214DF22E20FDF7FA
:102AA00014FE10214DF22F20FDF70FFE03214DF2F1
:102AB0003020FDF70AFE33214DF23120FDF705FEEF
:102AC00003214DF23220FDF700FE6D214DF233203F
:102AD000FDF7FBFD00214FF45340FDF7F6FD3321D8
:102AE0004DF20130FDF7F1FD00214DF20230FDF70E
:102AF000ECFD34214DF20330FDF7E7FD00214DF2EE
:102B00000430FDF7E2FD3A214DF20530FDF7DDFD21
:102B100000214DF20630FDF7D8FD4A214DF2073075
:102B2000FDF7D3FD00214DF20830FDF7CEFD5C210D
:102B30004DF20930FDF7C9FD00214DF20A30FDF7D5
:102B4000C4FD81214DF20B30FDF7BFFD00214DF298
:102B50000C30FDF7BAFDA6214DF20D30FDF7B5FDA5
:102B600000214DF20E30FDF7B0FDE5214DF20F30A2
:102B7000FDF7ABFD01214DF21030FDF7A6FD13214D
:102B80004DF21130FDF7A1FD01214DF21230FDF79C
:102B90009CFD54214DF21330FDF797FD01214DF2BC
:102BA0001430FDF792FD82214DF21530FDF78DFDB9
:102BB00001214DF21630FDF788FDCA214DF2173084
:102BC000FDF783FD02214DF21830FDF77EFD002157
:102BD0004DF21930FDF779FD02214DF21A30FDF763
:102BE00074FD01214DF21B30FDF76FFD02214DF206
:102BF0001C30FDF76AFD34214DF21D30FDF765FDF7
:102C000002214DF21E30FDF760FD67214DF21F30AD
:102C1000FDF75BFD02214DF22030FDF756FD8421CA
:102C20004DF22130FDF751FD02214DF22230FDF72A
:102C30004CFDA4214DF22330FDF747FD02214DF25A
:102C40002430FDF742FDB7214DF22530FDF73DFD63
:102C500002214DF22630FDF738FDCF214DF227300D
:102C6000FDF733FD02214DF22830FDF72EFDDE2168
:102C70004DF22930FDF729FD02214DF22A30FDF7F2
:102C800024FDF2214DF22B30FDF71FFD02214DF204
:102C90002C30FDF71AFDFE214DF22D30FDF715FD0C
:102CA00003214DF22E30FDF710FD10214DF22F3093
:102CB000FDF70BFD03214DF23030FDF706FD33210A
:102CC0004DF23130FDF701FD03214DF23230FDF7B9
:102CD000FCFC6D214DF23330FDF7F7FC00214FF481
:102CE0005440FDF7F2FC33214DF20140FDF7EDFCBD
:102CF00000214DF20240FDF7E8FC34214DF2034083
:102D0000FDF7E3FC00214DF20440FDF7DEFC3A2123
:102D10004DF20540FDF7D9FC00214DF20640FDF7CC
:102D2000D4FC4A214DF20740FDF7CFFC00214DF2C3
:102D30000840FDF7CAFC5C214DF20940FDF7C5FCD7
:102D400000214DF20A40FDF7C0FC81214DF20B40FD
:102D5000FDF7BBFC00214DF20C40FDF7B6FCA621AF
:102D60004DF20D40FDF7B1FC00214DF20E40FDF794
:102D7000ACFCE5214DF20F40FDF7A7FC01214DF21F
:102D80001040FDF7A2FC13214DF21140FDF79DFC10
:102D900001214DF21240FDF798FC54214DF21340F1
:102DA000FDF793FC01214DF21440FDF78EFC8221CA
:102DB0004DF21540FDF789FC01214DF21640FDF75B
:102DC00084FCCA214DF21740FDF77FFC02214DF231
:102DD0001840FDF77AFC00214DF21940FDF775FC13
:102DE00002214DF21A40FDF770FC01214DF21B400B
:102DF00000E005E3FDF769FC02214DF21C40FDF700
:102E000064FC34214DF21D40FDF75FFC02214DF2C0
:102E10001E40FDF75AFC67214DF21F40FDF755FC9F
:102E200002214DF22040FDF750FC84214DF221405B
:102E3000FDF74BFC02214DF22240FDF746FCA42198
:102E40004DF22340FDF741FC02214DF22440FDF7F5
:102E50003CFCB7214DF22540FDF737FC02214DF235
:102E60002640FDF732FCCF214DF22740FDF72DFC27
:102E700002214DF22840FDF728FCDE214DF22940C9
:102E8000FDF723FC02214DF22A40FDF71EFCF22142
:102E90004DF22B40FDF719FC02214DF22C40FDF7BD
:102EA00014FCFE214DF22D40FDF70FFC03214DF2E5
:102EB0002E40FDF70AFC10214DF22F40FDF705FCD6
:102EC00003214DF23040FDF700FC33214DF231403B
:102ED000FDF7FBFB03214DF23240FDF7F6FB6D21C0
:102EE0004DF23340FDF7F1FB00214FF45540FDF763
:102EF000ECFB33214DF20150FDF7E7FB00214DF2D1
:102F00000250FDF7E2FB34214DF20350FDF7DDFBEB
:102F100000214DF20450FDF7D8FB3A214DF2055047
:102F2000FDF7D3FB00214DF20650FDF7CEFB4A2101
:102F30004DF20750FDF7C9FB00214DF20850FDF797
:102F4000C4FB5C214DF20950FDF7BFFB00214DF29F
:102F50000A50FDF7BAFB81214DF20B50FDF7B5FB8E
:102F600000214DF20C50FDF7B0FBA6214DF20D50A3
:102F7000FDF7ABFB00214DF20E50FDF7A6FBE5215E
:102F80004DF20F50FDF7A1FB01214DF21050FDF75E
:102F90009CFB13214DF21150FDF797FB01214DF2DF
:102FA0001250FDF792FB54214DF21350FDF78DFBAB
:102FB00001214DF21450FDF788FB82214DF215508E
:102FC000FDF783FB01214DF21650FDF77EFBCA2170
:102FD0004DF21750FDF779FB02214DF21850FDF725
:102FE00074FB00214DF21950FDF76FFB02214DF2E9
:102FF0001A50FDF76AFB01214DF21B50FDF765FBEE
:1030000002214DF21C50FDF760FB34214DF21D50A2
:10301000FDF75BFB02214DF21E50FDF756FB6721C9
:103020004DF21F50FDF751FB02214DF22050FDF7EC
:103030004CFB84214DF22150FDF747FB02214DF25C
:103040002250FDF742FBA4214DF22350FDF73DFB3A
:1030500002214DF22450FDF738FBB7214DF22550E7
:10306000FDF733FB02214DF22650FDF72EFBCF2159
:103070004DF22750FDF729FB02214DF22850FDF7B4
:1030800024FBDE214DF22950FDF71FFB02214DF2FA
:103090002A50FDF71AFBF2214DF22B50FDF715FBDC
:1030A00002214DF22C50FDF710FBFE214DF22D5068
:1030B000FDF70BFB03214DF22E50FDF706FB10210F
:1030C0004DF22F50FDF701FB03214DF23050FDF77B
:1030D000FCFA33214DF23150FDF7F7FA03214DF29E
:1030E0003250FDF7F2FA6D214DF23350FDF7EDFA53
:1030F00000214FF45640FDF7E8FA33214DF201600C
:10310000FDF7E3FA00214DF20260FDF7DEFA34210B
:103110004DF20360FDF7D9FA00214DF20460FDF78E
:10312000D4FA3A214DF20560FDF7CFFA00214DF2B5
:103130000660FDF7CAFA4A214DF20760FDF7C5FAAD
:1031400000214DF20860FDF7C0FA5C214DF20960E4
:10315000FDF7BBFA00214DF20A60FDF7B6FA8121B6
:103160004DF20B60FDF7B1FA00214DF20C60FDF756
:10317000ACFAA6214DF20D60FDF7A7FA00214DF241
:103180000E60FDF7A2FAE5214DF20F60FDF79DFA02
:1031900001214DF21060FDF798FA13214DF21160F4
:1031A000FDF793FA01214DF21260FDF78EFA5421DA
:1031B0004DF21360FDF789FA01214DF21460FDF71D
:1031C00084FA82214DF21560FDF77FFA01214DF25C
:1031D0001660FDF77AFACA214DF21760FDF775FA0D
:1031E00002214DF21860FDF770FA00214DF21960CE
:1031F000FDF76BFA02214DF21A60FDF766FA012124
:103200004DF21B60FDF761FA02214DF21C60FDF7E3
:103210005CFA34214DF21D60FDF757FA02214DF2A0
:103220001E60FDF752FA67214DF21F60FDF74DFA5F
:1032300002214DF22060FDF748FA84214DF2216011
:10324000FDF743FA02214DF22260FDF73EFAA42178
:103250004DF22360FDF739FA02214DF22460FDF7AB
:1032600034FAB7214DF22560FDF72FFA02214DF215
:103270002660FDF72AFACF214DF22760FDF725FAE7
:1032800002214DF22860FDF720FADE214DF229607F
:10329000FDF71BFA02214DF22A60FDF716FAF22122
:1032A0004DF22B60FDF711FA02214DF22C60FDF773
:1032B0000CFAFE214DF22D60FDF707FA03214DF2C5
:1032C0002E60FDF702FA10214DF22F60FDF7FDF997
:1032D00003214DF23060FDF7F8F933214DF23160F2
:1032E000FDF7F3F903214DF23260FDF7EEF96D21A0
:1032F0004DF23360FDF7E9F955214FF47040FDF7C9
:10330000E4F9AA214FF20100FDF7DFF952214FF253
:103310000200FDF7DAF908214FF20300FDF7D5F9B5
:1033200000214FF20400FDF7D0F9CC214FF43140D9
:10333000FDF7CBF900214BF20110FDF7C6F905218D
:103340004FF43640FDF7C1F970214FF43740FDF7D7
:10335000BCF970214BF20170FDF7B7F901214FF470
:103360003840FDF7B2F903214BF60100FDF7ADF946
:1033700003214BF60200FDF7A8F903214BF60300E9
:10338000FDF7A3F902214FF43C40FDF79EF900211F
:103390004BF60140FDF799F900214BF60240FDF78D
:1033A00094F9D0214FF44940FDF78FF902214CF6F2
:1033B0000110FDF78AF950214CF60210FDF785F94E
:1033C00050214CF60310FDF780F950214CF6041003
:1033D000FDF77BF900214FF45450FDF776F95521A4
:1033E0004FF46850FDF771F94FF48850FDF75EF91E
:1033F000782000F0AEFC4FF42450FDF757F9BDE003
:10340000FE48808841F663118842F8D1E220FDF73A
:103410004DF91D20FDF74DF90220FDF74AF9042072
:10342000FDF747F9642000F094FCE020FDF73EF939
:103430000120FDF73EF90A2000F0AFFCE020FDF787
:1034400035F90320FDF735F90C2000F0A6FC01202A
:10345000FDF72CF90A2000F0A0FCE620FDF726F984
:103460002F20FDF726F9FF20FDF723F9FF20FDF7B8
:1034700020F9B020FDF71AF92020FDF71AF90020F5
:10348000FDF717F90320FDF714F940F21F30FDF79F
:1034900010F90120FDF70DF940F2DF10FDF709F9F1
:1034A0000020FDF706F9B420FDF700F90420FDF730
:1034B00000F940F21F40FDF7FCF80020FDF7F9F895
:1034C0002E20FDF7F6F80020FDF7F3F80020FDF7B9
:1034D000F0F80020FDF7EDF80020FDF7EAF8B6203F
:1034E000FDF7E4F80220FDF7E4F84FF40370FDF770
:1034F000E0F80020FDF7DDF81720FDF7DAF81520D9
:10350000FDF7D7F80020FDF7D4F80020FDF7D1F83B
:10351000F020FDF7CBF80320FDF7CBF82920FDF7CD
:10352000C5F8D020FDF7C2F80020FDF7C2F8BE2094
:10353000FDF7BCF80520FDF7BCF8FE20FDF7B9F853
:103540000120FDF7B6F80020FDF7B3F80020FDF7E5
:10355000B0F80020FDF7ADF8B820FDF7A7F803207C
:10356000FDF7A7F80120FDF7A4F8BA20FDF79EF8B3
:103570000120FDF79EF86420FDF760FB0020FDF7B9
:1035800085FB01209E4908604FF6FF70FDF7C9FCDE
:103590001FB000BD2DE9F04F05460E461746984670
:1035A000DDF824A04FF0000B781B401C1FFA80FBB5
:1035B000344613E021462846FDF7B4F8FDF795F8A8
:1035C0004FF0000906E08F48A0F800A009F10100C3
:1035D0001FFA80F9D945F6DB601C84B24445E9DD69
:1035E000BDE8F08F2DE9F84F07460D469046994605
:1035F000DDF828B0A8EB0700401C1FFA80FAA9EB01
:103600000500401C80B20090002414E0281981B20B
:103610003846FDF787F8FDF768F8002607E004FB59
:103620000A603BF8100077490880701C86B2564546
:10363000F5DB601C84B200988442E7DBBDE8F88FBC
:103640002DE9FF4F84B081468A4600200390029006
:103650000698A0EB09050798A0EB0A06CDF80490A0
:10366000CDF800A0002D01DD012705E00DB90027F0
:1036700002E04FF0FF376D42002E02DD4FF00108EF
:1036800006E016B94FF0000802E04FF0FF3876422E
:10369000B54201DD2C4600E034464FF0000B21E03E
:1036A000009A91B2019A90B2FDF745FA0398284426
:1036B00003900298304402900398A04205DD0398DD
:1036C000001B03900198384401900298A04205DD48
:1036D0000298001B02900098404400900BF10100FA
:1036E0001FFA80FB601C8345DADD08B0BDE8F08F6F
:1036F000F0B504460D4616461F462B46324629466F
:103700002046FFF79DFF3B46224629462046FFF70D
:1037100097FF3B46324639462046FFF791FF3B462E
:10372000324629463046FFF78BFFF0BD2DE9F043C6
:1037300006460F469046002445460320A0EB480964
:103740003CE07A1B91B2321990B2FDF7F4F93A1BC2
:1037500091B2721990B2FDF7EEF93A1991B272195D
:1037600090B2FDF7E8F97A1991B2321990B2FDF7EB
:10377000E2F97A1991B2321B90B2FDF7DCF93A19ED
:1037800091B2721B90B2FDF7D6F97A1B91B2321B3F
:1037900090B2FDF7D0F93A1B91B2721B90B2FDF7CF
:1037A000CAF9641CB9F1000F03DAA000801D81443E
:1037B00004E0601B80000A3081446D1EAC42C0DD15
:1037C000BDE8F0832DE9F84F80460E4617461C46AB
:1037D000B3462046E31704EB5373DB1021464FEA50
:1037E000E47C04EB5C7C4FEAEC0CA4EBCC0CBCF16D
:1037F000000F09D04FF0010C08E000003C00002051
:10380000808121420008006C4FF0000C6344224686
:1038100004EBD27C4FEA6C0C03FB0CF3DBB200939D
:10382000A7F12000C7B2002556E00C2C07D107EB0A
:1038300047009F4901EB800010F8059013E0102C21
:1038400005D19C4800EB071010F805900BE0182CF0
:1038500007D107EBC700984901EB800010F80590ED
:1038600001E0BDE8F88F4FF0000A2FE009F080007A
:1038700030B19248028831464046FDF76AF907E0C8
:103880000A9828B98E48028831464046FDF761F90A
:103890004FEA49604FEA1069701C86B28948408837
:1038A000B04200DCDDE7A6EB0B00A0420AD15E4689
:1038B00008F101001FFA80F882480088404500DCCA
:1038C000CFE706E00AF1010000F0FF0ABAF1080FA5
:1038D000CCDB00BF681CC5B200988542A5DB00BFE9
:1038E000BFE710B50246012000E050430B00A1F1F4
:1038F0000104E1B2F9D110BD2DE9FF4F81B00746B7
:1039000091461E460E9D4FF0000A002439E0301B00
:10391000401EC1B20A20FFF7E4FFB9FBF0F00A2114
:10392000B0FBF1F201FB1208BAF1000F16D1701EC4
:10393000A04213DDB8F1000F0ED10020AB4605EB1D
:10394000DB71491001FB0471009088B22B462022E4
:103950000299FFF737FF12E04FF0010A0020AB4653
:1039600005EBDB71491001FB0471009088B208F18E
:103970003001CAB22B460299FFF724FF00BF601C3A
:10398000C4B2B442C3DB05B0BDE8F08F2DE9FF4FF0
:1039900082B0064692461F46DDE90F48002001909E
:1039A00000254DE0781B401EC1B20A20FFF799FFA9
:1039B000BAFBF0F00A21B0FBF1F201FB1209019809
:1039C00050BB781EA84227DDB9F1000F22D108F0C4
:1039D000800078B108F00100A34604EBDB714910C8
:1039E00001FB0561009088B2234630220399FFF75E
:1039F000E9FE0EE008F00100A34604EBDB7149107C
:103A000001FB0561009088B2234620220399FFF74D
:103A1000D9FE13E00120019008F00100A34604EB59
:103A2000DB71491001FB0561009088B209F130019A
:103A3000CAB223460399FFF7C5FE00BF681CC5B292
:103A4000BD42AFDB06B0BDE8F08F2DE9F847044674
:103A50000D4690469946DDE9096704F0FF0A08EB38
:103A600004001FFA80F809EB05001FFA80F916E040
:103A7000444502DB5446A81985B24D4500DB14E0ED
:103A8000002000903A78334629462046FFF79AFEF8
:103A9000304606EBD07104EB61018CB27F1C3878A4
:103AA0007E2802DC38782028E2DA00BFBDE8F887FB
:103AB00064570008D85B0008C861000816000020A1
:103AC000180000203C00002010B540F22551884825
:103AD00001F004FB80B1864801F080FAC4B2854849
:103AE0000078402808DA844882490978445481489B
:103AF0000078401C7F49087010BD10B586B00446A0
:103B00000121242001F0C6F80121480401F0CFF87A
:103B10008020ADF8140010208DF8170003208DF8D8
:103B2000160005A9754800F0F9FD0420ADF8140051
:103B300018208DF8170005A9714800F0EFFD082046
:103B4000ADF8140004208DF8170005A96C4800F0AA
:103B5000E5FD0121480401F0C4F800214FF40030D4
:103B600001F0BFF801940020ADF80800ADF80A009C
:103B7000ADF80C00ADF810000C20ADF80E0001A956
:103B80005B4801F02EF926208DF8000003208DF807
:103B900001008DF8020001208DF80300684600F056
:103BA000EEF9012240F22551514801F0B2F901210C
:103BB0004F4801F0A2F900205249086006B010BD3C
:103BC00070B505460E4601204E49086000240CE001
:103BD00000BF4021464801F06BFA0028F9D0295D6A
:103BE000434801F0F7F9601CC4B2B442F0DB00BFF7
:103BF00040213F4801F05CFA0028F9D000203D49FF
:103C000008704049086070BD2DE9F04107460D4637
:103C1000384806780024002028700A2000F0BDF8FB
:103C20003448007886420FD176B100BF04E03248B4
:103C3000005D3855601CC4B2B442F8DB2D480078F2
:103C4000287000202B490870BDE8F08130B587B09E
:103C500005462DA103C9CDE905012DA103C9CDE973
:103C600003012DA103C9CDE9010101202549086007
:103C700000242CE065B900BF40211D4801F018FA6E
:103C80000028F9D005A8015D194801F0A3F91CE04E
:103C9000012D0CD100BF4021154801F009FA002880
:103CA000F9D003A8015D124801F094F90DE0022D4E
:103CB0000BD100BF40210E4801F0FAF90028F9D0DD
:103CC00001A8015D0A4801F085F9601CC4B2082C06
:103CD000D0DB00BF4021064801F0EAF90028F9D006
:103CE0000020044908700749086007B030BD000093
:103CF000004400401A0000204A0000200014014047
:103D0000000801409C812242010300000002C40B14
:103D1000020300010001D5F9030300020001242879
:103D200010B56FF0040000F074F92E4800682E49B9
:103D3000B0FBF1F02D4908700846007800EB400117
:103D4000C1EBC0104FF6FF7101EAC000284908809E
:103D500010BD0146254A12784A434FF0E0235A61CC
:103D600000229A611A46126942F001021A6100BFEC
:103D70004FF0E022106900F001021AB100F4803225
:103D8000002AF5D04FF0E022126922F001024FF034
:103D9000E0231A6100229A6170470146144A128892
:103DA0004A434FF0E0235A6100229A611A46126991
:103DB00042F001021A6100BF4FF0E022106900F0EA
:103DC00001021AB100F48032002AF5D04FF0E0224F
:103DD000126922F001024FF0E0231A6100229A6179
:103DE000704700000000002000127A001C00002034
:103DF0001E00002000BF704700BF4A4A128802F030
:103E00004002002AF9D0C2B2464B1B1D1A807047EF
:103E100010B586B00446012144F2040000F03AFFD8
:103E20004FF40070ADF8140003208DF81600182030
:103E30008DF8170005A93C4800F070FC4FF4806035
:103E4000ADF8140004208DF8170005A9364800F0DD
:103E500065FC25208DF8000003208DF801008DF809
:103E6000020001208DF80300684600F088F80194F4
:103E70000020ADF80800ADF80A00ADF80C00ADF870
:103E800010000C20ADF80E0001A9264800F0A9FF93
:103E9000012240F22551234801F03BF8012121483D
:103EA00001F02BF806B010BD10B540F225511D48A9
:103EB00001F014F910B31B4801F090F8C4B21B488C
:103EC000008800F40040C8B91848008800F4804019
:103ED00060B10A2C03D000201449088020E0134868
:103EE000008840F400401149088019E00D2C06D1EB
:103EF0000E48008840F480400C49088010E00B48D0
:103F00000088C0F30D000A490C5408480088401C82
:103F10000649088008460088C72801DD002008807F
:103F200010BD0000003801400008014024000020BE
:103F30008A0000200948804709480047FEE7FEE75D
:103F4000FEE7FEE7FEE7FEE7FEE7FEE7FEE7FEE749
:103F500004480549054A064B7047000087040008DD
:103F600031010008B8010020B8070020B803002084
:103F7000B803002031490143314A1160704770B5E0
:103F8000002100230F22C47804B32D4C246804F4CC
:103F9000E064C4F5E064210AC1F10403CA40447836
:103FA00004FA03F18478144021430901254C067872
:103FB000A155047804F01F050124AC4005786D116B
:103FC000AD0005F1E025C5F8004109E0047804F0F2
:103FD0001F050124AC401C4D0678761145F826409B
:103FE00070BD1A4A0A400243154B1B1F1A607047E6
:103FF00039B1134A121D12680243114B1B1D1A607E
:1040000006E00F4A121D126882430D4B1B1D1A60F9
:104010007047042808D14FF0E021096941F00401FC
:104020004FF0E022116107E04FF0E021096921F033
:1040300004014FF0E0221161704700000000FA0512
:104040000CED00E000E400E080E100E080FFFF1FF5
:1040500030B943F2DB028100A1F1C0410A6005E002
:1040600043F2D2028100A1F1C0410A606FF07042B8
:10407000411C8900A1F1C0410A608100A1F1C04149
:10408000C1F80421704710280AD118214FF02042AE
:104090001166402151664FF0FC319166D16610E007
:1040A0001821F74A116040214FF02042C2F88410D5
:1040B0004FF0FC31F24A083211604FF02042C2F852
:1040C0008C1070471820EE49203108600020090646
:1040D000C1F8A4004FF0FC30E94928310860091DFF
:1040E0000860091D08607047D0E901121143C268D9
:1040F0001143026911434269114382691143C26944
:104100001143026A1143426A1143826A1143C26A2F
:104110001143026B114302689200A2F1C042116088
:10412000816808290BD101688900A1F1C0410968A3
:1041300041F0400201688900A1F1C0410A60416B71
:104140000968426B526841EA0211426B926841EA87
:104150000221426B928941EA0241426B128A41EA92
:104160000251426B127D41EA0261426B9269114336
:104170000268521C9200A2F1C0421160C16AB1F5FE
:10418000804F1BD1816B0968826B526841EA021132
:10419000826B926841EA0221826B128A41EA0251E3
:1041A000826B127D41EA0261826B9269114302685F
:1041B0009200A2F1C042C2F8041107E06FF0704211
:1041C00001688900A1F1C041C1F80421704730B5F0
:1041D000002100220023446844F0080485682C4331
:1041E000C5682C4305692C43456944EA4524856923
:1041F00044EA4531C4692468C5696D6844EA052408
:10420000C5692D8944EA0544C5692D7B44EA0562E8
:10421000046A2468056A6D6844EA0524056A2D89E4
:1042200044EA0544056A2D7B44EA05630468102CC2
:1042300005D14FF020442166A266E36608E0904C69
:1042400021604FF02044C4F888208D4C0C3423604A
:1042500030BD016841F01001426841EA42218268A4
:1042600041EA4231864A20321160C1680968C26859
:10427000526841EA0221C268128941EA0241C268D9
:10428000127B41EA02617E4A2832116001690968A5
:104290000269526841EA02210269128941EA024137
:1042A0000269127B41EA0261754A2C321160416950
:1042B00009684269526841EA02214269128941EA69
:1042C00002414269127B41EA02614FF02042C2F88A
:1042D000B01070470021016002214160002181601F
:1042E000C160016141618161C16101624FF480512E
:1042F0004162490081620021C16201630F21426B6A
:104300001160426B5160FF21426B91600F21426B43
:10431000D160426B1161426B51610021426B91612E
:104320000F21826B1160826B5160FF21826B916063
:104330000F21826BD160826B1161826B5161002110
:10434000826B9161704710210160002141608160A2
:10435000C160016141618161FC21C2691160C26972
:104360005160C2699160C269D160026A1160026ADB
:104370005160026A9160026AD16070470021016059
:1043800041608160FC21C2681160C2685160C268EE
:104390009160C268D160026911600269516002696E
:1043A00091600269D160426911604269516042695D
:1043B00091604269D160704751B18200A2F1C04260
:1043C000126842F001038200A2F1C042136009E0CA
:1043D0008200A2F1C04212682A4B1A408300A3F166
:1043E000C0431A60704799B1102808D14FF020429D
:1043F000126E42F004024FF020431A661DE0204A7C
:10440000126842F004024FF02043C3F8802014E009
:10441000102809D14FF02042126E1A4BDB1E1A40B1
:104420004FF020431A6608E0154A1268154BDB1E50
:104430001A404FF02043C3F88020704748B110491C
:104440002031096841F004014FF02042C2F8A01069
:1044500009E00B49203109680A4AD21E11404FF089
:104460002042C2F8A0107047B9B110280CD14FF00B
:104470002042126E42F040024FF020431A661FE0C5
:10448000800000A0FEFF0F00724A126842F0400256
:104490004FF02043C3F8802012E0102808D14FF0DD
:1044A0002042126E6C4B1A404FF020431A6607E010
:1044B000684A1268684B1A404FF02043C3F88020C6
:1044C000704701460020102903D14FF02042506F61
:1044D00002E0604A14321068704710B5F2B110283B
:1044E00007D14FF020435B6E0B434FF020446366CF
:1044F00032E0B0F5807F08D1564B1B1D1B680B4383
:104500004FF02044C4F8843026E0524B24331B681B
:104510000B434FF02044C4F8A4301DE0102807D10D
:104520004FF020435B6E8B434FF02044636613E0F3
:10453000B0F5807F08D1474B1B1D1B688B434FF0A4
:104540002044C4F8843007E0424B24331B688B437B
:104550004FF02044C4F8A43010BD10B5024600202E
:104560000023102A03D14FF02044636E09E0B2F516
:10457000807F03D1374C241D236802E0354C24345E
:10458000236803EA01040CB1012000E0002010BD03
:10459000102807D14FF02042526E8A434FF020433B
:1045A0005A6613E0B0F5807F08D12A4A121D1268BE
:1045B0008A434FF02043C3F8842007E0254A243281
:1045C00012688A434FF02043C3F8A420704770B5A7
:1045D00002460020002300240025102A03D14FF0BA
:1045E0002046736E09E0B2F5807F03D1194E361D67
:1045F000336802E0174E2436336803EA010403EA05
:10460000D10514B10DB1012000E0002070BD1028CB
:1046100008D14FF02042526E22EAD1024FF02043DF
:104620005A6615E0B0F5807F09D10A4A121D12685A
:1046300022EAD1024FF02043C3F8842008E0054A63
:104640002432126822EAD1024FF02043C3F8A4209A
:1046500070470000800000A0BFFF0F0010B50446A7
:10466000CC48844208D10121042000F02DFB002118
:10467000042000F029FB46E0C748844208D101210C
:10468000082000F021FB0021082000F01DFB3AE08B
:10469000C248844208D10121102000F015FB0021FE
:1046A000102000F011FB2EE0BD48844208D101210A
:1046B000202000F009FB0021202000F005FB22E073
:1046C000B848844208D10121402000F0FDFA0021C1
:1046D000402000F0F9FA16E0B348844208D10121E5
:1046E000802000F0F1FA0021802000F0EDFA0AE0CD
:1046F000AE48844207D10121801500F0E5FA00217F
:10470000A01500F0E1FA10BD10B50121084600F037
:10471000DBFA0021012000F0D7FA10BD2DE9F041AD
:10472000024600250026002000230024002791F8DF
:1047300003C00CF00F0591F803C00CF0100CBCF195
:10474000000F03D091F802C04CEA050591F800C0B3
:10475000BCF1000F31D0146800202BE04FF0010CA9
:104760000CFA00F3B1F800C00CEA03069E4220D117
:1047700083004FF00F0C0CFA03F7BC4305FA03FC5F
:104780004CEA040491F803C0BCF1280F06D14FF0A5
:10479000010C0CFA00FCC2F814C00AE091F803C046
:1047A000BCF1480F05D14FF0010C0CFA00FCC2F827
:1047B00010C0401C0828D1D31460B1F800C0BCF16F
:1047C000FF0F34DD546800202EE000F1080C4FF09C
:1047D000010808FA0CF3B1F800C00CEA03069E4287
:1047E00021D183004FF00F0C0CFA03F7BC4305FAFC
:1047F00003FC4CEA040491F803C0BCF1280F05D176
:1048000000F1080C08FA0CF8C2F8148091F803C003
:10481000BCF1480F07D100F1080C4FF0010808FA6D
:104820000CF8C2F81080401C0828CED35460BDE8B4
:10483000F0814FF6FF710180022181700421C17067
:1048400070470246002093680B400BB1012000E046
:10485000002070470146886880B2704702460020F9
:10486000D3680B400BB1012000E0002070470146E7
:10487000C86880B2704701617047416170470AB1F2
:10488000016100E041617047C16070474FF48032C0
:104890000A4382618161826182698269704702464E
:1048A0000020434B18684FF68073184040EA02100E
:1048B00008433F4B186070473E49C8617047F0B5E8
:1048C0000A46002300240021002500F00046B6F12E
:1048D000004F02D1364EF16901E0354E7168C0F3E8
:1048E000034583B200F44016B6F5401F08D121F00D
:1048F00070612F4E766826F070662D4F7E6012E054
:1049000000F48016B6F5801F06D1032606FA05F4DA
:10491000A14341F0706106E0460D360103FA06F648
:10492000B14341F0706122B1460D360103FA06F63B
:10493000314300F00046B6F1004F02D11C4EF16148
:1049400001E01B4E7160F0BD30B500228B071C0FDB
:104950000F2303FA04F2164B08338C1053F824305B
:104960009343134C08348D1044F8253023468C10A3
:1049700053F824308C07240F00FA04F423430C4C22
:1049800008348D1044F8253030BD0A49DC31086008
:104990007047000000080140000C01400010014079
:1049A0000014014000180140001C0140002001409B
:1049B0000000014000002042DF48006840F0010094
:1049C000DD49086008464068DC490840DA4948602B
:1049D00008460068DA490840D74908600846006878
:1049E00020F4802008600846406820F4FE004860FB
:1049F0004FF41F0088607047CF49096821F4803167
:104A0000CD4A11601146096821F480211160B0F58A
:104A1000803F03D0B0F5802F0ED106E0C64909686B
:104A200041F48031C44A116007E0C349096841F488
:104A3000A021C14A116000E000BF00BF704710B55F
:104A400001460022002300204A11012A02D1BA4C5B
:104A5000236806E0022A02D1B74C236A01E0B64C73
:104A6000636A01F01F02012494401C400CB1012034
:104A700000E0002010BD38B5002000900024002583
:104A800000BF3120FFF7DBFF05460098401C009077
:104A90000098B0F5A06F01D0002DF2D03120FFF7C3
:104AA000CEFF08B1012400E00024204638BD0146B5
:104AB0000020A14A106820F0F80040EAC100106010
:104AC0007047A04908607047024600209A4B58681A
:104AD00020F47C1042EA01031843974B586070475A
:104AE00098490866704701460020934A506820F0B4
:104AF00003000843506070478F48406800F00C0086
:104B00007047014600208C4A506820F0F0000843AE
:104B10005060704701460020874A506820F4E060EA
:104B200008435060704701460020834A506820F4D3
:104B3000605040EAC1005060704729B17E4A527A05
:104B400002437D4B5A7204E07B4A527A82437A4B8D
:104B50005A7270477B49D83108607047014600207F
:104B6000754A506820F44040084350607047002167
:104B7000714A20321170704A82F82010012802D048
:104B800004280AD104E001216B4A2032117005E0AB
:104B90000521694A2032117000E000BF00BF704754
:104BA0006949086070476449096A0143624A1162B1
:104BB0007047654944390860704730B500210022CC
:104BC000002400235C4D6D6805F00C0121B104291F
:104BD00005D0082923D105E05C4D056022E05B4D3E
:104BE00005601FE0544D6D6805F47012524D6D68FC
:104BF00005F48034022505EB92421CB9544D55430F
:104C000005600BE04C4D6D6805F400351DB1504D4D
:104C10005543056002E04D4D5543056002E04B4DA4
:104C2000056000BF00BF444D6D6805F0F001090943
:104C3000484D6B5C0568DD4045603F4D6D6805F48F
:104C4000E061090A434D6B5C4568DD4085603A4D83
:104C50006D6805F46051C90A3E4D6B5C4568DD40E6
:104C6000C560354D6D6805F44041890B3A4D6B5C6C
:104C7000C568B5FBF3F5056130BD29B12E4A52690F
:104C800002432D4B5A6104E02B4A526982432A4B5E
:104C90005A61704729B1284A92690243264B9A61AA
:104CA00004E0254A92698243234B9A61704729B1F7
:104CB000214AD2690243204BDA6104E01E4AD269DC
:104CC00082431D4BDA61704729B11B4AD268024307
:104CD000194BDA6004E0184AD2688243164BDA6056
:104CE000704729B1144A12690243134B1A6104E058
:104CF000114A12698243104B1A61704712494039B8
:104D0000086070470F49C86470470B49C871704705
:104D10000948406A40F08070074948627047014680
:104D20000020054A92680A400AB1012000E00020F4
:104D30007047014988727047001002400000FFF878
:104D4000FFFFF6FE000042428004424200127A0059
:104D500000093D00260000203600002010B5044662
:104D6000FB48844209D101218803FFF7ADFF0021F0
:104D70004FF48040FFF7A8FF32E0F648844209D1A3
:104D800001214804FFF7ADFF00214FF40030FFF789
:104D9000A8FF25E0F048844209D101218804FFF7EB
:104DA000A0FF00214FF48020FFF79BFF18E0EB48A5
:104DB000844209D10121C804FFF793FF00214FF479
:104DC0000020FFF78EFF0BE0E548844208D1012167
:104DD0000805FFF786FF00214FF48010FFF781FFE1
:104DE00010BD2DE9F04786B005460E460024A246C8
:104DF00000BFA1460027B08900B100BF2F462C8A12
:104E00004CF6FF700440F08804432C82AC894EF6C7
:104E1000F3100440B0883189084371890843044382
:104E2000AC81AC8A4FF6FF400440B0890443AC82A9
:104E300001A8FFF7C2FEC648874202D1DDF810A0E4
:104E400001E0DDF80CA0A88900F4004040B10AEBB5
:104E5000CA0000EB0A1031684900B0FBF1F807E026
:104E60000AEBCA0000EB0A1031688900B0FBF1F8C8
:104E70006420B8FBF0F004012009642101FB1089D3
:104E8000A88900F4004040B1322000EBC900B0FB1B
:104E9000F1F000F00700044308E0322000EB0910B5
:104EA0006421B0FBF1F000F00F0004432C8106B048
:104EB000BDE8F0874FF41651016000218180C18068
:104EC00001810C21418100218181704710B502468A
:104ED0000020108A4FF2FF0318400B884C882343B0
:104EE0008C882343CC8823431843108210BD0021B3
:104EF000018041808180C180704721B1828942F464
:104F00000052828104E082894DF6FF731A4082814B
:104F10007047F0B50346002400260025002040F627
:104F20006A17B94200D100BF1846C1F3421401F01C
:104F30001F06012707FA06F5012C01D10C3004E009
:104F4000022C01D1103000E014301AB107682F4351
:104F5000076002E00768AF430760F0BD1AB1838ABB
:104F60000B43838202E0838A8B4383827047028AE9
:104F70004FF6F0731A400282028A0A430282704797
:104F800082894FF2FF731A40828182890A438281AB
:104F9000704721B1828942F00202828104E0828955
:104FA0004FF6FD731A4082817047028A4FF6DF7315
:104FB0001A400282028A0A430282704721B1028AA1
:104FC00042F48042028204E0028A4BF6FF731A40E8
:104FD00002827047C1F308028280704701468888C8
:104FE000C0F308007047818941F001018181704759
:104FF000028BD2B20283028B42EA01220283704703
:10500000028B02F47F420283028B0A4302837047C1
:1050100021B1828A42F02002828204E0828A4FF625
:10502000DF731A408282704721B1828A42F01002F7
:10503000828204E0828A4FF6EF731A4082827047C0
:1050400021B1828A42F00802828204E0828A4FF60D
:10505000F7731A408282704721B1828942F400427C
:10506000828103E08289C2F30E028281704721B1FE
:10507000828A42F40062828204E0828A4FF2FF73E5
:105080001A4082827047828A4FF6FB731A408282EE
:10509000828A0A438282704721B1828A42F00202E8
:1050A000828204E0828A4FF6FD731A408282704742
:1050B00002460020B1F5007F00D100BF13880B40ED
:1050C0000BB1012000E00020704701F40072B2F53E
:1050D000007F00D100BFCA430280704770B502460E
:1050E000002400230025002040F66A16B14200D1BA
:1050F00000BFC1F3421501F01F03012606FA03F3B6
:10510000012D02D19689334006E0022D02D1168A84
:10511000334001E0968A33400C12012606FA04F46B
:105120001688344013B10CB1012000E0002070BD9E
:1051300010B50022002340F66A14A14200D100BF3E
:105140000A1201249440A3B2DC43048010BD000085
:10515000003801400044004000480040004C00403E
:1051600000500040704700000FB4044910B503AA76
:10517000029800F053F910BC5DF814FB20000020E9
:1051800070B5044685690068C10601D5302600E087
:105190002026C00707D070BDD4E9012130469047D2
:1051A000206A401C20626D1EF6D570BD70B50446A5
:1051B00085690078C00707D170BDD4E9012120209E
:1051C0009047206A401C20626D1EF6D570BD00001D
:1051D00070B504460D4621461068AFF30080218863
:1051E000090502D50F4A7A4402E00E4A7A440E328B
:1051F000002104F1240305E000F00F060009965D8C
:105200005E54491C0028F7D120780023000704D5FC
:10521000702D02D009B1022311322046BDE8704042
:1052200000F0A2B83A1D00002DE9F05F894604465F
:105230004FF0000ADFF824B1FB44C0F820A020465C
:10524000E168884700287DD0252806D0D4E90121CF
:105250009047206A401C2062F1E700255F46204607
:10526000E16888472028064607DB312E05D2B819A9
:1052700010F8200C08B10543F1E7A80701D525F087
:105280000405C4F81CA00027C4F818A02A2E09D0D1
:10529000304600F021F938B304EB8708303EC8F8F7
:1052A000186019E059F8041B204604EB870291614D
:1052B000E1688847012F064618D1E069002820DA06
:1052C00025F020051DE0D8F8180000EB800006EB63
:1052D00040003038C8F818002046E1688847064684
:1052E00000F0FAF80028EED1012F0AD02E2E08D1B6
:1052F0002046E16888477F1C0646022F45F02005BE
:10530000C4DBA069002803DA404245F00105A06132
:10531000E80701D025F01005A6B1A6F14100192833
:1053200002D8203645F400654A46314620462560BD
:105330004D46FAF737FF60B1012807D0ED1D25F083
:10534000070000E007E000F1080978E705F104092B
:1053500075E730467AE7206ABDE8F09F101D00002F
:1053600070477047704770472DE9F0470D469946E2
:105370009246044600F124080168880604D5E069D5
:1053800021F01001216000E00120A84201DD471B4F
:1053900000E00027A1697A1902EB0900081AA06150
:1053A0002078C00602D42046FFF7EAFE002608E077
:1053B000D4E901211AF806009047206A401C761CA7
:1053C00020624E45F4DB2078C0060AD52046FFF760
:1053D000D7FE06E0D4E9012130209047206A401C26
:1053E0002062381EA7F10107F4DC07E0D4E90121AF
:1053F00018F805009047206A401C2062281EA5F17D
:105400000105F3DC2046FFF7D1FE2078000602D527
:105410000220BDE8F0870120FBE70000074B70B5D4
:105420000D467B4400F011F80446284600F020F8B1
:1054300010B14FF0FF3070BD204670BDD3E9FFFFC3
:1054400001694A1C02610878704700B58FB0CDE948
:1054500001310021059105497944CDE90310114638
:105460006846FFF7E1FE0FB000BD0000E5FFFFFF5B
:10547000007B00F080007047754600F029F8AE46CA
:1054800005006946534620F00700854618B020B550
:10549000FEF75EFDBDE820404FF000064FF000072C
:1054A0004FF000084FF0000B21F00701AC46ACE8CC
:1054B000C009ACE8C009ACE8C009ACE8C0098D4639
:1054C00070470446AFF300802046FAF77DFE0000E7
:1054D000004870475401002030380A2801D20120CA
:1054E00070470020704700004FEA1153A3F5806316
:1054F000D3F11E03A8BFD3F1200C08DB4FF000420C
:1055000042EAC12252EA505232FA03F0704709428D
:105510000BD4102BC4BF0020704703F5787CBCF17E
:10552000FF3F05D04FF0FF3070474FF0000070474D
:1055300070B500F0C3F800BF499224800020704786
:10554000F0E7B0FA80F310FA03F10AD0C3F11D03BB
:1055500003F580634FEA41504FEA035202EBD12139
:1055600070474FF000007047DFF848C170B51CEA83
:10557000111E1EBF1CEA13159EEA0C0F95EA0C0FB4
:1055800000F06F8081EA030423EA4C134EEAD47ED4
:1055900021EA4C1141F4801143F48013AE44A1FB85
:1055A000024CA0FB0365AEF17F7E361955EB0C056E
:1055B000A1FB034C4CF10003A0FB021C16EB0C06F4
:1055C000654153F10003094218BF46F0010613F488
:1055D000007F0BD14FEA03314FEA0530340341EA33
:1055E000155140EA16506FF003020AE04FEAC3215A
:1055F0004FEAC520F40241EA555140EA56506FF097
:10560000020202EB2E4201EB025585EACE710AD06E
:105610005FEA440C18BF24F0004450F1000041F14F
:10562000000120EAD47040F2FE7C624500D270BDD9
:10563000A84214BF4FF080444FF04044002E08BFF2
:105640000024BEF1806FA8BFA1F1C041BDE8704049
:1056500080F282804FF0000001F1C04101F0004172
:1056600070479EEA0C0F0CEA131518BF95EA0C0F51
:1056700006D04FF0000081EA030E0EF0004170BD2D
:1056800000F01CF88900013E00F007B800F009B8EE
:105690004FEA430C5FEA5C5C08D081EA030100F04A
:1056A0005BB84FEA410C5FEA5C5CF6D14FF000005A
:1056B000014970470000FF070000F87F0EF1020E5D
:1056C0002EF0030E5EF8046B364205D4012A43EB3C
:1056D000030515F5001F12D8012841EB010C1CF53C
:1056E000001F0CD80ED14FEAD17C15F5001F0CEB32
:1056F0004C0C0CF1020C08BF4CEBD37C04E04FF0D7
:10570000080C01E04FEAD37C0CEB4C0526FA05F6B9
:1057100006F00706B6F1040C06D20EEB860CBDE8C7
:1057200070404CF0010C6047DFE80CF0090B0202FE
:105730004FF000414FF00000A1F5002170BD194667
:105740001046012851EB010418BFD4F5001484BFA2
:10575000002001F0004170BD0808A0F500114FEADB
:105760003101704700000000000000000000000050
:10577000000000003F40000000000000000030007A
:10578000400030004000000009000BC03D000BC08D
:105790003D00090018C024407FE022403180000015
:1057A000180024C01B000D803240018003801C4083
:1057B00027401C80074000401000600000000000EF
:1057C000000000000000000000001F80204040207A
:1057D0000000402020401F8000000000090006005B
:1057E0001F80060009000000040004003F80040040
:1057F0000400000000100060000000000000000035
:105800000400040004000400040000000000004044
:105810000000000000000000002001C00600380069
:10582000400000001F802040204020401F800000DA
:10583000000010403FC000400000000018C02140A0
:105840002240244018400000108020402440244082
:105850001B80000002000D0011003FC0014000004D
:105860003C80244024402440238000001F802440AA
:1058700024403440038000003000200027C038005E
:10588000200000001B802440244024401B80000096
:105890001C0022C0224022401F80000000000000A7
:1058A000084000000000000000000000046000004C
:1058B00000000000000004000A00110020804040A9
:1058C000090009000900090009000000000040402B
:1058D000208011000A00040018002000234024004A
:1058E000180000001F802040274029401F40000072
:1058F000004007C039000F0001C0004020403FC0F9
:10590000244024401B8000001F8020402040204075
:105910003080000020403FC0204020401F80000019
:1059200020403FC024402E4030C0000020403FC0F7
:1059300024402E00300000000F0010802040224044
:105940003380020020403FC0040004003FC02040DC
:10595000204020403FC02040204000000060202028
:1059600020203FC02000200020403FC024400B00EA
:1059700030C0204020403FC020400040004000C0D8
:105980003FC03C0003C03C003FC0000020403FC07F
:105990000C4023003FC020001F80204020402040BA
:1059A0001F80000020403FC0244024001800000059
:1059B0001F802140214020E01FA0000020403FC068
:1059C0002440260019C0004018C024402440224032
:1059D00031800000300020403FC0204030000000F7
:1059E00020003F80004000403F80200020003E001B
:1059F00001C0070038002000380007C03C0007C085
:105A000038000000204039C0060039C020400000A6
:105A10002000384007C0384020000000304021C03E
:105A20002640384020C00000000000007FE04020F9
:105A300040200000000070000C00038000400000C7
:105A40000000402040207FE0000000000000200017
:105A500040002000000000000010001000100010A6
:105A600000100010000000004000000000000000D6
:105A7000000002800540054003C0004020003FC0F8
:105A80000440044003800000000003800440044000
:105A90000640000000000380044024403FC0004056
:105AA0000000038005400540034000000000044062
:105AB0001FC0244024402000000002E00550055093
:105AC0000650042020403FC00440040003C00040B2
:105AD0000000044027C0004000000000001000103B
